{
  "_format": "hh-sol-artifact-1",
  "contractName": "BetTicket",
  "sourceName": "contracts/BetTicket.sol",
  "abi": [
    {
      "inputs": [],
      "stateMutability": "nonpayable",
      "type": "constructor"
    },
    {
      "inputs": [
        {
          "internalType": "address",
          "name": "sender",
          "type": "address"
        },
        {
          "internalType": "uint256",
          "name": "tokenId",
          "type": "uint256"
        },
        {
          "internalType": "address",
          "name": "owner",
          "type": "address"
        }
      ],
      "name": "ERC721IncorrectOwner",
      "type": "error"
    },
    {
      "inputs": [
        {
          "internalType": "address",
          "name": "operator",
          "type": "address"
        },
        {
          "internalType": "uint256",
          "name": "tokenId",
          "type": "uint256"
        }
      ],
      "name": "ERC721InsufficientApproval",
      "type": "error"
    },
    {
      "inputs": [
        {
          "internalType": "address",
          "name": "approver",
          "type": "address"
        }
      ],
      "name": "ERC721InvalidApprover",
      "type": "error"
    },
    {
      "inputs": [
        {
          "internalType": "address",
          "name": "operator",
          "type": "address"
        }
      ],
      "name": "ERC721InvalidOperator",
      "type": "error"
    },
    {
      "inputs": [
        {
          "internalType": "address",
          "name": "owner",
          "type": "address"
        }
      ],
      "name": "ERC721InvalidOwner",
      "type": "error"
    },
    {
      "inputs": [
        {
          "internalType": "address",
          "name": "receiver",
          "type": "address"
        }
      ],
      "name": "ERC721InvalidReceiver",
      "type": "error"
    },
    {
      "inputs": [
        {
          "internalType": "address",
          "name": "sender",
          "type": "address"
        }
      ],
      "name": "ERC721InvalidSender",
      "type": "error"
    },
    {
      "inputs": [
        {
          "internalType": "uint256",
          "name": "tokenId",
          "type": "uint256"
        }
      ],
      "name": "ERC721NonexistentToken",
      "type": "error"
    },
    {
      "inputs": [
        {
          "internalType": "address",
          "name": "owner",
          "type": "address"
        }
      ],
      "name": "OwnableInvalidOwner",
      "type": "error"
    },
    {
      "inputs": [
        {
          "internalType": "address",
          "name": "account",
          "type": "address"
        }
      ],
      "name": "OwnableUnauthorizedAccount",
      "type": "error"
    },
    {
      "anonymous": false,
      "inputs": [
        {
          "indexed": true,
          "internalType": "address",
          "name": "owner",
          "type": "address"
        },
        {
          "indexed": true,
          "internalType": "address",
          "name": "approved",
          "type": "address"
        },
        {
          "indexed": true,
          "internalType": "uint256",
          "name": "tokenId",
          "type": "uint256"
        }
      ],
      "name": "Approval",
      "type": "event"
    },
    {
      "anonymous": false,
      "inputs": [
        {
          "indexed": true,
          "internalType": "address",
          "name": "owner",
          "type": "address"
        },
        {
          "indexed": true,
          "internalType": "address",
          "name": "operator",
          "type": "address"
        },
        {
          "indexed": false,
          "internalType": "bool",
          "name": "approved",
          "type": "bool"
        }
      ],
      "name": "ApprovalForAll",
      "type": "event"
    },
    {
      "anonymous": false,
      "inputs": [
        {
          "indexed": false,
          "internalType": "uint256",
          "name": "_fromTokenId",
          "type": "uint256"
        },
        {
          "indexed": false,
          "internalType": "uint256",
          "name": "_toTokenId",
          "type": "uint256"
        }
      ],
      "name": "BatchMetadataUpdate",
      "type": "event"
    },
    {
      "anonymous": false,
      "inputs": [
        {
          "indexed": false,
          "internalType": "uint256",
          "name": "_tokenId",
          "type": "uint256"
        }
      ],
      "name": "MetadataUpdate",
      "type": "event"
    },
    {
      "anonymous": false,
      "inputs": [
        {
          "indexed": true,
          "internalType": "address",
          "name": "previousOwner",
          "type": "address"
        },
        {
          "indexed": true,
          "internalType": "address",
          "name": "newOwner",
          "type": "address"
        }
      ],
      "name": "OwnershipTransferred",
      "type": "event"
    },
    {
      "anonymous": false,
      "inputs": [
        {
          "indexed": true,
          "internalType": "uint256",
          "name": "tokenId",
          "type": "uint256"
        },
        {
          "indexed": true,
          "internalType": "address",
          "name": "owner",
          "type": "address"
        },
        {
          "indexed": true,
          "internalType": "uint256",
          "name": "projectId",
          "type": "uint256"
        },
        {
          "indexed": false,
          "internalType": "uint256",
          "name": "optionIndex",
          "type": "uint256"
        }
      ],
      "name": "TicketMinted",
      "type": "event"
    },
    {
      "anonymous": false,
      "inputs": [
        {
          "indexed": true,
          "internalType": "address",
          "name": "from",
          "type": "address"
        },
        {
          "indexed": true,
          "internalType": "address",
          "name": "to",
          "type": "address"
        },
        {
          "indexed": true,
          "internalType": "uint256",
          "name": "tokenId",
          "type": "uint256"
        }
      ],
      "name": "Transfer",
      "type": "event"
    },
    {
      "inputs": [
        {
          "internalType": "address",
          "name": "to",
          "type": "address"
        },
        {
          "internalType": "uint256",
          "name": "tokenId",
          "type": "uint256"
        }
      ],
      "name": "approve",
      "outputs": [],
      "stateMutability": "nonpayable",
      "type": "function"
    },
    {
      "inputs": [
        {
          "internalType": "address",
          "name": "owner",
          "type": "address"
        }
      ],
      "name": "balanceOf",
      "outputs": [
        {
          "internalType": "uint256",
          "name": "",
          "type": "uint256"
        }
      ],
      "stateMutability": "view",
      "type": "function"
    },
    {
      "inputs": [
        {
          "internalType": "uint256",
          "name": "tokenId",
          "type": "uint256"
        }
      ],
      "name": "getApproved",
      "outputs": [
        {
          "internalType": "address",
          "name": "",
          "type": "address"
        }
      ],
      "stateMutability": "view",
      "type": "function"
    },
    {
      "inputs": [
        {
          "internalType": "uint256",
          "name": "tokenId",
          "type": "uint256"
        }
      ],
      "name": "getTicketInfo",
      "outputs": [
        {
          "internalType": "uint256",
          "name": "projectId",
          "type": "uint256"
        },
        {
          "internalType": "uint256",
          "name": "optionIndex",
          "type": "uint256"
        }
      ],
      "stateMutability": "view",
      "type": "function"
    },
    {
      "inputs": [
        {
          "internalType": "address",
          "name": "owner",
          "type": "address"
        }
      ],
      "name": "getTicketsOfOwner",
      "outputs": [
        {
          "internalType": "uint256[]",
          "name": "",
          "type": "uint256[]"
        }
      ],
      "stateMutability": "view",
      "type": "function"
    },
    {
      "inputs": [
        {
          "internalType": "address",
          "name": "owner",
          "type": "address"
        },
        {
          "internalType": "address",
          "name": "operator",
          "type": "address"
        }
      ],
      "name": "isApprovedForAll",
      "outputs": [
        {
          "internalType": "bool",
          "name": "",
          "type": "bool"
        }
      ],
      "stateMutability": "view",
      "type": "function"
    },
    {
      "inputs": [
        {
          "internalType": "address",
          "name": "to",
          "type": "address"
        },
        {
          "internalType": "uint256",
          "name": "projectId",
          "type": "uint256"
        },
        {
          "internalType": "uint256",
          "name": "optionIndex",
          "type": "uint256"
        }
      ],
      "name": "mintTicket",
      "outputs": [
        {
          "internalType": "uint256",
          "name": "",
          "type": "uint256"
        }
      ],
      "stateMutability": "nonpayable",
      "type": "function"
    },
    {
      "inputs": [],
      "name": "name",
      "outputs": [
        {
          "internalType": "string",
          "name": "",
          "type": "string"
        }
      ],
      "stateMutability": "view",
      "type": "function"
    },
    {
      "inputs": [],
      "name": "owner",
      "outputs": [
        {
          "internalType": "address",
          "name": "",
          "type": "address"
        }
      ],
      "stateMutability": "view",
      "type": "function"
    },
    {
      "inputs": [
        {
          "internalType": "uint256",
          "name": "tokenId",
          "type": "uint256"
        }
      ],
      "name": "ownerOf",
      "outputs": [
        {
          "internalType": "address",
          "name": "",
          "type": "address"
        }
      ],
      "stateMutability": "view",
      "type": "function"
    },
    {
      "inputs": [],
      "name": "renounceOwnership",
      "outputs": [],
      "stateMutability": "nonpayable",
      "type": "function"
    },
    {
      "inputs": [
        {
          "internalType": "address",
          "name": "from",
          "type": "address"
        },
        {
          "internalType": "address",
          "name": "to",
          "type": "address"
        },
        {
          "internalType": "uint256",
          "name": "tokenId",
          "type": "uint256"
        }
      ],
      "name": "safeTransferFrom",
      "outputs": [],
      "stateMutability": "nonpayable",
      "type": "function"
    },
    {
      "inputs": [
        {
          "internalType": "address",
          "name": "from",
          "type": "address"
        },
        {
          "internalType": "address",
          "name": "to",
          "type": "address"
        },
        {
          "internalType": "uint256",
          "name": "tokenId",
          "type": "uint256"
        },
        {
          "internalType": "bytes",
          "name": "data",
          "type": "bytes"
        }
      ],
      "name": "safeTransferFrom",
      "outputs": [],
      "stateMutability": "nonpayable",
      "type": "function"
    },
    {
      "inputs": [
        {
          "internalType": "address",
          "name": "operator",
          "type": "address"
        },
        {
          "internalType": "bool",
          "name": "approved",
          "type": "bool"
        }
      ],
      "name": "setApprovalForAll",
      "outputs": [],
      "stateMutability": "nonpayable",
      "type": "function"
    },
    {
      "inputs": [
        {
          "internalType": "bytes4",
          "name": "interfaceId",
          "type": "bytes4"
        }
      ],
      "name": "supportsInterface",
      "outputs": [
        {
          "internalType": "bool",
          "name": "",
          "type": "bool"
        }
      ],
      "stateMutability": "view",
      "type": "function"
    },
    {
      "inputs": [],
      "name": "symbol",
      "outputs": [
        {
          "internalType": "string",
          "name": "",
          "type": "string"
        }
      ],
      "stateMutability": "view",
      "type": "function"
    },
    {
      "inputs": [
        {
          "internalType": "uint256",
          "name": "",
          "type": "uint256"
        }
      ],
      "name": "ticketInfo",
      "outputs": [
        {
          "internalType": "uint256",
          "name": "projectId",
          "type": "uint256"
        },
        {
          "internalType": "uint256",
          "name": "optionIndex",
          "type": "uint256"
        }
      ],
      "stateMutability": "view",
      "type": "function"
    },
    {
      "inputs": [
        {
          "internalType": "uint256",
          "name": "tokenId",
          "type": "uint256"
        }
      ],
      "name": "tokenURI",
      "outputs": [
        {
          "internalType": "string",
          "name": "",
          "type": "string"
        }
      ],
      "stateMutability": "view",
      "type": "function"
    },
    {
      "inputs": [
        {
          "internalType": "address",
          "name": "from",
          "type": "address"
        },
        {
          "internalType": "address",
          "name": "to",
          "type": "address"
        },
        {
          "internalType": "uint256",
          "name": "tokenId",
          "type": "uint256"
        }
      ],
      "name": "transferFrom",
      "outputs": [],
      "stateMutability": "nonpayable",
      "type": "function"
    },
    {
      "inputs": [
        {
          "internalType": "address",
          "name": "newOwner",
          "type": "address"
        }
      ],
      "name": "transferOwnership",
      "outputs": [],
      "stateMutability": "nonpayable",
      "type": "function"
    }
  ],
  "bytecode": "0x60806040523480156200001157600080fd5b50336040518060400160405280600e81526020017f42657474696e67205469636b65740000000000000000000000000000000000008152506040518060400160405280600781526020017f425449434b45540000000000000000000000000000000000000000000000000081525081600090816200009091906200047a565b508060019081620000a291906200047a565b505050600073ffffffffffffffffffffffffffffffffffffffff168173ffffffffffffffffffffffffffffffffffffffff16036200011a5760006040517f1e4fbdf7000000000000000000000000000000000000000000000000000000008152600401620001119190620005a6565b60405180910390fd5b6200012b816200013a60201b60201c565b506001600881905550620005c3565b6000600760009054906101000a900473ffffffffffffffffffffffffffffffffffffffff16905081600760006101000a81548173ffffffffffffffffffffffffffffffffffffffff021916908373ffffffffffffffffffffffffffffffffffffffff1602179055508173ffffffffffffffffffffffffffffffffffffffff168173ffffffffffffffffffffffffffffffffffffffff167f8be0079c531659141344cd1fd0a4f28419497f9722a3daafe3b4186f6b6457e060405160405180910390a35050565b600081519050919050565b7f4e487b7100000000000000000000000000000000000000000000000000000000600052604160045260246000fd5b7f4e487b7100000000000000000000000000000000000000000000000000000000600052602260045260246000fd5b600060028204905060018216806200028257607f821691505b6020821081036200029857620002976200023a565b5b50919050565b60008190508160005260206000209050919050565b60006020601f8301049050919050565b600082821b905092915050565b600060088302620003027fffffffffffffffffffffffffffffffffffffffffffffffffffffffffffffffff82620002c3565b6200030e8683620002c3565b95508019841693508086168417925050509392505050565b6000819050919050565b6000819050919050565b60006200035b620003556200034f8462000326565b62000330565b62000326565b9050919050565b6000819050919050565b62000377836200033a565b6200038f620003868262000362565b848454620002d0565b825550505050565b600090565b620003a662000397565b620003b38184846200036c565b505050565b5b81811015620003db57620003cf6000826200039c565b600181019050620003b9565b5050565b601f8211156200042a57620003f4816200029e565b620003ff84620002b3565b810160208510156200040f578190505b620004276200041e85620002b3565b830182620003b8565b50505b505050565b600082821c905092915050565b60006200044f600019846008026200042f565b1980831691505092915050565b60006200046a83836200043c565b9150826002028217905092915050565b620004858262000200565b67ffffffffffffffff811115620004a157620004a06200020b565b5b620004ad825462000269565b620004ba828285620003df565b600060209050601f831160018114620004f25760008415620004dd578287015190505b620004e985826200045c565b86555062000559565b601f19841662000502866200029e565b60005b828110156200052c5784890151825560018201915060208501945060208101905062000505565b868310156200054c578489015162000548601f8916826200043c565b8355505b6001600288020188555050505b505050505050565b600073ffffffffffffffffffffffffffffffffffffffff82169050919050565b60006200058e8262000561565b9050919050565b620005a08162000581565b82525050565b6000602082019050620005bd600083018462000595565b92915050565b6126fd80620005d36000396000f3fe608060405234801561001057600080fd5b506004361061012c5760003560e01c80638da5cb5b116100ad578063e870cb6611610071578063e870cb6614610341578063e985e9c514610371578063f2fde38b146103a1578063fa713083146103bd578063ff99a063146103ee5761012c565b80638da5cb5b1461029d57806395d89b41146102bb578063a22cb465146102d9578063b88d4fde146102f5578063c87b56dd146103115761012c565b806342842e0e116100f457806342842e0e146101e75780636352211e1461020357806370a0823114610233578063715018a61461026357806385fd52f01461026d5761012c565b806301ffc9a71461013157806306fdde0314610161578063081812fc1461017f578063095ea7b3146101af57806323b872dd146101cb575b600080fd5b61014b60048036038101906101469190611d45565b61041f565b6040516101589190611d8d565b60405180910390f35b610169610431565b6040516101769190611e38565b60405180910390f35b61019960048036038101906101949190611e90565b6104c3565b6040516101a69190611efe565b60405180910390f35b6101c960048036038101906101c49190611f45565b6104df565b005b6101e560048036038101906101e09190611f85565b6104f5565b005b61020160048036038101906101fc9190611f85565b6105f7565b005b61021d60048036038101906102189190611e90565b610617565b60405161022a9190611efe565b60405180910390f35b61024d60048036038101906102489190611fd8565b610629565b60405161025a9190612014565b60405180910390f35b61026b6106e3565b005b61028760048036038101906102829190611fd8565b6106f7565b60405161029491906120ed565b60405180910390f35b6102a56107f9565b6040516102b29190611efe565b60405180910390f35b6102c3610823565b6040516102d09190611e38565b60405180910390f35b6102f360048036038101906102ee919061213b565b6108b5565b005b61030f600480360381019061030a91906122b0565b6108cb565b005b61032b60048036038101906103269190611e90565b6108e8565b6040516103389190611e38565b60405180910390f35b61035b60048036038101906103569190612333565b6108fa565b6040516103689190612014565b60405180910390f35b61038b60048036038101906103869190612386565b6109c7565b6040516103989190611d8d565b60405180910390f35b6103bb60048036038101906103b69190611fd8565b610a5b565b005b6103d760048036038101906103d29190611e90565b610ae1565b6040516103e59291906123c6565b60405180910390f35b61040860048036038101906104039190611e90565b610b05565b6040516104169291906123c6565b60405180910390f35b600061042a82610b52565b9050919050565b6060600080546104409061241e565b80601f016020809104026020016040519081016040528092919081815260200182805461046c9061241e565b80156104b95780601f1061048e576101008083540402835291602001916104b9565b820191906000526020600020905b81548152906001019060200180831161049c57829003601f168201915b5050505050905090565b60006104ce82610bb3565b506104d882610c3b565b9050919050565b6104f182826104ec610c78565b610c80565b5050565b600073ffffffffffffffffffffffffffffffffffffffff168273ffffffffffffffffffffffffffffffffffffffff16036105675760006040517f64a0ae9200000000000000000000000000000000000000000000000000000000815260040161055e9190611efe565b60405180910390fd5b600061057b8383610576610c78565b610c92565b90508373ffffffffffffffffffffffffffffffffffffffff168173ffffffffffffffffffffffffffffffffffffffff16146105f1578382826040517f64283d7b0000000000000000000000000000000000000000000000000000000081526004016105e89392919061244f565b60405180910390fd5b50505050565b610612838383604051806020016040528060008152506108cb565b505050565b600061062282610bb3565b9050919050565b60008073ffffffffffffffffffffffffffffffffffffffff168273ffffffffffffffffffffffffffffffffffffffff160361069c5760006040517f89c62b640000000000000000000000000000000000000000000000000000000081526004016106939190611efe565b60405180910390fd5b600360008373ffffffffffffffffffffffffffffffffffffffff1673ffffffffffffffffffffffffffffffffffffffff168152602001908152602001600020549050919050565b6106eb610eac565b6106f56000610f33565b565b6060600061070483610629565b905060008167ffffffffffffffff81111561072257610721612185565b5b6040519080825280602002602001820160405280156107505781602001602082028036833780820191505090505b509050600080600190505b6008548110801561076b57508382105b156107ed578573ffffffffffffffffffffffffffffffffffffffff1661079082610ff9565b73ffffffffffffffffffffffffffffffffffffffff16036107da57808383815181106107bf576107be612486565b5b60200260200101818152505081806107d6906124e4565b9250505b80806107e5906124e4565b91505061075b565b50819350505050919050565b6000600760009054906101000a900473ffffffffffffffffffffffffffffffffffffffff16905090565b6060600180546108329061241e565b80601f016020809104026020016040519081016040528092919081815260200182805461085e9061241e565b80156108ab5780601f10610880576101008083540402835291602001916108ab565b820191906000526020600020905b81548152906001019060200180831161088e57829003601f168201915b5050505050905090565b6108c76108c0610c78565b8383611036565b5050565b6108d68484846104f5565b6108e2848484846111a5565b50505050565b60606108f38261135c565b9050919050565b6000610904610eac565b600060085490506008600081548092919061091e906124e4565b919050555061092d858261146f565b604051806040016040528085815260200184815250600960008381526020019081526020016000206000820151816000015560208201518160010155905050838573ffffffffffffffffffffffffffffffffffffffff16827fc37a1385743f2c8fd48bc6522d6e5d7c954ff19299e19f502e7fad8a1568792b866040516109b49190612014565b60405180910390a4809150509392505050565b6000600560008473ffffffffffffffffffffffffffffffffffffffff1673ffffffffffffffffffffffffffffffffffffffff16815260200190815260200160002060008373ffffffffffffffffffffffffffffffffffffffff1673ffffffffffffffffffffffffffffffffffffffff16815260200190815260200160002060009054906101000a900460ff16905092915050565b610a63610eac565b600073ffffffffffffffffffffffffffffffffffffffff168173ffffffffffffffffffffffffffffffffffffffff1603610ad55760006040517f1e4fbdf7000000000000000000000000000000000000000000000000000000008152600401610acc9190611efe565b60405180910390fd5b610ade81610f33565b50565b60096020528060005260406000206000915090508060000154908060010154905082565b600080600060096000858152602001908152602001600020604051806040016040529081600082015481526020016001820154815250509050806000015181602001519250925050915091565b6000634906490660e01b7bffffffffffffffffffffffffffffffffffffffffffffffffffffffff1916827bffffffffffffffffffffffffffffffffffffffffffffffffffffffff19161480610bac5750610bab8261148d565b5b9050919050565b600080610bbf83610ff9565b9050600073ffffffffffffffffffffffffffffffffffffffff168173ffffffffffffffffffffffffffffffffffffffff1603610c3257826040517f7e273289000000000000000000000000000000000000000000000000000000008152600401610c299190612014565b60405180910390fd5b80915050919050565b60006004600083815260200190815260200160002060009054906101000a900473ffffffffffffffffffffffffffffffffffffffff169050919050565b600033905090565b610c8d838383600161156f565b505050565b600080610c9e84610ff9565b9050600073ffffffffffffffffffffffffffffffffffffffff168373ffffffffffffffffffffffffffffffffffffffff1614610ce057610cdf818486611734565b5b600073ffffffffffffffffffffffffffffffffffffffff168173ffffffffffffffffffffffffffffffffffffffff1614610d7157610d2260008560008061156f565b6001600360008373ffffffffffffffffffffffffffffffffffffffff1673ffffffffffffffffffffffffffffffffffffffff168152602001908152602001600020600082825403925050819055505b600073ffffffffffffffffffffffffffffffffffffffff168573ffffffffffffffffffffffffffffffffffffffff1614610df4576001600360008773ffffffffffffffffffffffffffffffffffffffff1673ffffffffffffffffffffffffffffffffffffffff168152602001908152602001600020600082825401925050819055505b846002600086815260200190815260200160002060006101000a81548173ffffffffffffffffffffffffffffffffffffffff021916908373ffffffffffffffffffffffffffffffffffffffff160217905550838573ffffffffffffffffffffffffffffffffffffffff168273ffffffffffffffffffffffffffffffffffffffff167fddf252ad1be2c89b69c2b068fc378daa952ba7f163c4a11628f55a4df523b3ef60405160405180910390a4809150509392505050565b610eb4610c78565b73ffffffffffffffffffffffffffffffffffffffff16610ed26107f9565b73ffffffffffffffffffffffffffffffffffffffff1614610f3157610ef5610c78565b6040517f118cdaa7000000000000000000000000000000000000000000000000000000008152600401610f289190611efe565b60405180910390fd5b565b6000600760009054906101000a900473ffffffffffffffffffffffffffffffffffffffff16905081600760006101000a81548173ffffffffffffffffffffffffffffffffffffffff021916908373ffffffffffffffffffffffffffffffffffffffff1602179055508173ffffffffffffffffffffffffffffffffffffffff168173ffffffffffffffffffffffffffffffffffffffff167f8be0079c531659141344cd1fd0a4f28419497f9722a3daafe3b4186f6b6457e060405160405180910390a35050565b60006002600083815260200190815260200160002060009054906101000a900473ffffffffffffffffffffffffffffffffffffffff169050919050565b600073ffffffffffffffffffffffffffffffffffffffff168273ffffffffffffffffffffffffffffffffffffffff16036110a757816040517f5b08ba1800000000000000000000000000000000000000000000000000000000815260040161109e9190611efe565b60405180910390fd5b80600560008573ffffffffffffffffffffffffffffffffffffffff1673ffffffffffffffffffffffffffffffffffffffff16815260200190815260200160002060008473ffffffffffffffffffffffffffffffffffffffff1673ffffffffffffffffffffffffffffffffffffffff16815260200190815260200160002060006101000a81548160ff0219169083151502179055508173ffffffffffffffffffffffffffffffffffffffff168373ffffffffffffffffffffffffffffffffffffffff167f17307eab39ab6107e8899845ad3d59bd9653f200f220920489ca2b5937696c31836040516111989190611d8d565b60405180910390a3505050565b60008373ffffffffffffffffffffffffffffffffffffffff163b1115611356578273ffffffffffffffffffffffffffffffffffffffff1663150b7a026111e9610c78565b8685856040518563ffffffff1660e01b815260040161120b9493929190612581565b6020604051808303816000875af192505050801561124757506040513d601f19601f8201168201806040525081019061124491906125e2565b60015b6112cb573d8060008114611277576040519150601f19603f3d011682016040523d82523d6000602084013e61127c565b606091505b5060008151036112c357836040517f64a0ae920000000000000000000000000000000000000000000000000000000081526004016112ba9190611efe565b60405180910390fd5b805181602001fd5b63150b7a0260e01b7bffffffffffffffffffffffffffffffffffffffffffffffffffffffff1916817bffffffffffffffffffffffffffffffffffffffffffffffffffffffff19161461135457836040517f64a0ae9200000000000000000000000000000000000000000000000000000000815260040161134b9190611efe565b60405180910390fd5b505b50505050565b606061136782610bb3565b5060006006600084815260200190815260200160002080546113889061241e565b80601f01602080910402602001604051908101604052809291908181526020018280546113b49061241e565b80156114015780601f106113d657610100808354040283529160200191611401565b820191906000526020600020905b8154815290600101906020018083116113e457829003601f168201915b5050505050905060006114126117f8565b9050600081510361142757819250505061146a565b60008251111561145c57808260405160200161144492919061264b565b6040516020818303038152906040529250505061146a565b6114658461180f565b925050505b919050565b611489828260405180602001604052806000815250611878565b5050565b60007f80ac58cd000000000000000000000000000000000000000000000000000000007bffffffffffffffffffffffffffffffffffffffffffffffffffffffff1916827bffffffffffffffffffffffffffffffffffffffffffffffffffffffff1916148061155857507f5b5e139f000000000000000000000000000000000000000000000000000000007bffffffffffffffffffffffffffffffffffffffffffffffffffffffff1916827bffffffffffffffffffffffffffffffffffffffffffffffffffffffff1916145b80611568575061156782611894565b5b9050919050565b80806115a85750600073ffffffffffffffffffffffffffffffffffffffff168273ffffffffffffffffffffffffffffffffffffffff1614155b156116dc5760006115b884610bb3565b9050600073ffffffffffffffffffffffffffffffffffffffff168373ffffffffffffffffffffffffffffffffffffffff161415801561162357508273ffffffffffffffffffffffffffffffffffffffff168173ffffffffffffffffffffffffffffffffffffffff1614155b8015611636575061163481846109c7565b155b1561167857826040517fa9fbf51f00000000000000000000000000000000000000000000000000000000815260040161166f9190611efe565b60405180910390fd5b81156116da57838573ffffffffffffffffffffffffffffffffffffffff168273ffffffffffffffffffffffffffffffffffffffff167f8c5be1e5ebec7d5bd14f71427d1e84f3dd0314c0f7b2291e5b200ac8c7c3b92560405160405180910390a45b505b836004600085815260200190815260200160002060006101000a81548173ffffffffffffffffffffffffffffffffffffffff021916908373ffffffffffffffffffffffffffffffffffffffff16021790555050505050565b61173f8383836118fe565b6117f357600073ffffffffffffffffffffffffffffffffffffffff168373ffffffffffffffffffffffffffffffffffffffff16036117b457806040517f7e2732890000000000000000000000000000000000000000000000000000000081526004016117ab9190612014565b60405180910390fd5b81816040517f177e802f0000000000000000000000000000000000000000000000000000000081526004016117ea92919061266f565b60405180910390fd5b505050565b606060405180602001604052806000815250905090565b606061181a82610bb3565b5060006118256117f8565b905060008151116118455760405180602001604052806000815250611870565b8061184f846119bf565b60405160200161186092919061264b565b6040516020818303038152906040525b915050919050565b6118828383611a8d565b61188f60008484846111a5565b505050565b60007f01ffc9a7000000000000000000000000000000000000000000000000000000007bffffffffffffffffffffffffffffffffffffffffffffffffffffffff1916827bffffffffffffffffffffffffffffffffffffffffffffffffffffffff1916149050919050565b60008073ffffffffffffffffffffffffffffffffffffffff168373ffffffffffffffffffffffffffffffffffffffff16141580156119b657508273ffffffffffffffffffffffffffffffffffffffff168473ffffffffffffffffffffffffffffffffffffffff161480611977575061197684846109c7565b5b806119b557508273ffffffffffffffffffffffffffffffffffffffff1661199d83610c3b565b73ffffffffffffffffffffffffffffffffffffffff16145b5b90509392505050565b6060600060016119ce84611b86565b01905060008167ffffffffffffffff8111156119ed576119ec612185565b5b6040519080825280601f01601f191660200182016040528015611a1f5781602001600182028036833780820191505090505b509050600082602001820190505b600115611a82578080600190039150507f3031323334353637383961626364656600000000000000000000000000000000600a86061a8153600a8581611a7657611a75612698565b5b04945060008503611a2d575b819350505050919050565b600073ffffffffffffffffffffffffffffffffffffffff168273ffffffffffffffffffffffffffffffffffffffff1603611aff5760006040517f64a0ae92000000000000000000000000000000000000000000000000000000008152600401611af69190611efe565b60405180910390fd5b6000611b0d83836000610c92565b9050600073ffffffffffffffffffffffffffffffffffffffff168173ffffffffffffffffffffffffffffffffffffffff1614611b815760006040517f73c6ac6e000000000000000000000000000000000000000000000000000000008152600401611b789190611efe565b60405180910390fd5b505050565b600080600090507a184f03e93ff9f4daa797ed6e38ed64bf6a1f0100000000000000008310611be4577a184f03e93ff9f4daa797ed6e38ed64bf6a1f0100000000000000008381611bda57611bd9612698565b5b0492506040810190505b6d04ee2d6d415b85acef81000000008310611c21576d04ee2d6d415b85acef81000000008381611c1757611c16612698565b5b0492506020810190505b662386f26fc100008310611c5057662386f26fc100008381611c4657611c45612698565b5b0492506010810190505b6305f5e1008310611c79576305f5e1008381611c6f57611c6e612698565b5b0492506008810190505b6127108310611c9e576127108381611c9457611c93612698565b5b0492506004810190505b60648310611cc15760648381611cb757611cb6612698565b5b0492506002810190505b600a8310611cd0576001810190505b80915050919050565b6000604051905090565b600080fd5b600080fd5b60007fffffffff0000000000000000000000000000000000000000000000000000000082169050919050565b611d2281611ced565b8114611d2d57600080fd5b50565b600081359050611d3f81611d19565b92915050565b600060208284031215611d5b57611d5a611ce3565b5b6000611d6984828501611d30565b91505092915050565b60008115159050919050565b611d8781611d72565b82525050565b6000602082019050611da26000830184611d7e565b92915050565b600081519050919050565b600082825260208201905092915050565b60005b83811015611de2578082015181840152602081019050611dc7565b60008484015250505050565b6000601f19601f8301169050919050565b6000611e0a82611da8565b611e148185611db3565b9350611e24818560208601611dc4565b611e2d81611dee565b840191505092915050565b60006020820190508181036000830152611e528184611dff565b905092915050565b6000819050919050565b611e6d81611e5a565b8114611e7857600080fd5b50565b600081359050611e8a81611e64565b92915050565b600060208284031215611ea657611ea5611ce3565b5b6000611eb484828501611e7b565b91505092915050565b600073ffffffffffffffffffffffffffffffffffffffff82169050919050565b6000611ee882611ebd565b9050919050565b611ef881611edd565b82525050565b6000602082019050611f136000830184611eef565b92915050565b611f2281611edd565b8114611f2d57600080fd5b50565b600081359050611f3f81611f19565b92915050565b60008060408385031215611f5c57611f5b611ce3565b5b6000611f6a85828601611f30565b9250506020611f7b85828601611e7b565b9150509250929050565b600080600060608486031215611f9e57611f9d611ce3565b5b6000611fac86828701611f30565b9350506020611fbd86828701611f30565b9250506040611fce86828701611e7b565b9150509250925092565b600060208284031215611fee57611fed611ce3565b5b6000611ffc84828501611f30565b91505092915050565b61200e81611e5a565b82525050565b60006020820190506120296000830184612005565b92915050565b600081519050919050565b600082825260208201905092915050565b6000819050602082019050919050565b61206481611e5a565b82525050565b6000612076838361205b565b60208301905092915050565b6000602082019050919050565b600061209a8261202f565b6120a4818561203a565b93506120af8361204b565b8060005b838110156120e05781516120c7888261206a565b97506120d283612082565b9250506001810190506120b3565b5085935050505092915050565b60006020820190508181036000830152612107818461208f565b905092915050565b61211881611d72565b811461212357600080fd5b50565b6000813590506121358161210f565b92915050565b6000806040838503121561215257612151611ce3565b5b600061216085828601611f30565b925050602061217185828601612126565b9150509250929050565b600080fd5b600080fd5b7f4e487b7100000000000000000000000000000000000000000000000000000000600052604160045260246000fd5b6121bd82611dee565b810181811067ffffffffffffffff821117156121dc576121db612185565b5b80604052505050565b60006121ef611cd9565b90506121fb82826121b4565b919050565b600067ffffffffffffffff82111561221b5761221a612185565b5b61222482611dee565b9050602081019050919050565b82818337600083830152505050565b600061225361224e84612200565b6121e5565b90508281526020810184848401111561226f5761226e612180565b5b61227a848285612231565b509392505050565b600082601f8301126122975761229661217b565b5b81356122a7848260208601612240565b91505092915050565b600080600080608085870312156122ca576122c9611ce3565b5b60006122d887828801611f30565b94505060206122e987828801611f30565b93505060406122fa87828801611e7b565b925050606085013567ffffffffffffffff81111561231b5761231a611ce8565b5b61232787828801612282565b91505092959194509250565b60008060006060848603121561234c5761234b611ce3565b5b600061235a86828701611f30565b935050602061236b86828701611e7b565b925050604061237c86828701611e7b565b9150509250925092565b6000806040838503121561239d5761239c611ce3565b5b60006123ab85828601611f30565b92505060206123bc85828601611f30565b9150509250929050565b60006040820190506123db6000830185612005565b6123e86020830184612005565b9392505050565b7f4e487b7100000000000000000000000000000000000000000000000000000000600052602260045260246000fd5b6000600282049050600182168061243657607f821691505b602082108103612449576124486123ef565b5b50919050565b60006060820190506124646000830186611eef565b6124716020830185612005565b61247e6040830184611eef565b949350505050565b7f4e487b7100000000000000000000000000000000000000000000000000000000600052603260045260246000fd5b7f4e487b7100000000000000000000000000000000000000000000000000000000600052601160045260246000fd5b60006124ef82611e5a565b91507fffffffffffffffffffffffffffffffffffffffffffffffffffffffffffffffff8203612521576125206124b5565b5b600182019050919050565b600081519050919050565b600082825260208201905092915050565b60006125538261252c565b61255d8185612537565b935061256d818560208601611dc4565b61257681611dee565b840191505092915050565b60006080820190506125966000830187611eef565b6125a36020830186611eef565b6125b06040830185612005565b81810360608301526125c28184612548565b905095945050505050565b6000815190506125dc81611d19565b92915050565b6000602082840312156125f8576125f7611ce3565b5b6000612606848285016125cd565b91505092915050565b600081905092915050565b600061262582611da8565b61262f818561260f565b935061263f818560208601611dc4565b80840191505092915050565b6000612657828561261a565b9150612663828461261a565b91508190509392505050565b60006040820190506126846000830185611eef565b6126916020830184612005565b9392505050565b7f4e487b7100000000000000000000000000000000000000000000000000000000600052601260045260246000fdfea26469706673582212207aa14b5997eccdbffdbac016393d894789f9d537d1302d1323651d15ba52f6d964736f6c63430008140033",
  "linkReferences": {},
  "deployedLinkReferences": {}
}