{
  "_format": "hh-sol-artifact-1",
  "contractName": "BetToken",
  "sourceName": "contracts/BetToken.sol",
  "abi": [
    {
      "inputs": [],
      "stateMutability": "nonpayable",
      "type": "constructor"
    },
    {
      "inputs": [
        {
          "internalType": "address",
          "name": "spender",
          "type": "address"
        },
        {
          "internalType": "uint256",
          "name": "allowance",
          "type": "uint256"
        },
        {
          "internalType": "uint256",
          "name": "needed",
          "type": "uint256"
        }
      ],
      "name": "ERC20InsufficientAllowance",
      "type": "error"
    },
    {
      "inputs": [
        {
          "internalType": "address",
          "name": "sender",
          "type": "address"
        },
        {
          "internalType": "uint256",
          "name": "balance",
          "type": "uint256"
        },
        {
          "internalType": "uint256",
          "name": "needed",
          "type": "uint256"
        }
      ],
      "name": "ERC20InsufficientBalance",
      "type": "error"
    },
    {
      "inputs": [
        {
          "internalType": "address",
          "name": "approver",
          "type": "address"
        }
      ],
      "name": "ERC20InvalidApprover",
      "type": "error"
    },
    {
      "inputs": [
        {
          "internalType": "address",
          "name": "receiver",
          "type": "address"
        }
      ],
      "name": "ERC20InvalidReceiver",
      "type": "error"
    },
    {
      "inputs": [
        {
          "internalType": "address",
          "name": "sender",
          "type": "address"
        }
      ],
      "name": "ERC20InvalidSender",
      "type": "error"
    },
    {
      "inputs": [
        {
          "internalType": "address",
          "name": "spender",
          "type": "address"
        }
      ],
      "name": "ERC20InvalidSpender",
      "type": "error"
    },
    {
      "inputs": [
        {
          "internalType": "address",
          "name": "owner",
          "type": "address"
        }
      ],
      "name": "OwnableInvalidOwner",
      "type": "error"
    },
    {
      "inputs": [
        {
          "internalType": "address",
          "name": "account",
          "type": "address"
        }
      ],
      "name": "OwnableUnauthorizedAccount",
      "type": "error"
    },
    {
      "anonymous": false,
      "inputs": [
        {
          "indexed": true,
          "internalType": "address",
          "name": "owner",
          "type": "address"
        },
        {
          "indexed": true,
          "internalType": "address",
          "name": "spender",
          "type": "address"
        },
        {
          "indexed": false,
          "internalType": "uint256",
          "name": "value",
          "type": "uint256"
        }
      ],
      "name": "Approval",
      "type": "event"
    },
    {
      "anonymous": false,
      "inputs": [
        {
          "indexed": true,
          "internalType": "address",
          "name": "previousOwner",
          "type": "address"
        },
        {
          "indexed": true,
          "internalType": "address",
          "name": "newOwner",
          "type": "address"
        }
      ],
      "name": "OwnershipTransferred",
      "type": "event"
    },
    {
      "anonymous": false,
      "inputs": [
        {
          "indexed": true,
          "internalType": "address",
          "name": "user",
          "type": "address"
        },
        {
          "indexed": false,
          "internalType": "uint256",
          "name": "amount",
          "type": "uint256"
        }
      ],
      "name": "TokensClaimed",
      "type": "event"
    },
    {
      "anonymous": false,
      "inputs": [
        {
          "indexed": true,
          "internalType": "address",
          "name": "from",
          "type": "address"
        },
        {
          "indexed": true,
          "internalType": "address",
          "name": "to",
          "type": "address"
        },
        {
          "indexed": false,
          "internalType": "uint256",
          "name": "value",
          "type": "uint256"
        }
      ],
      "name": "Transfer",
      "type": "event"
    },
    {
      "inputs": [],
      "name": "CLAIM_AMOUNT",
      "outputs": [
        {
          "internalType": "uint256",
          "name": "",
          "type": "uint256"
        }
      ],
      "stateMutability": "view",
      "type": "function"
    },
    {
      "inputs": [],
      "name": "MAX_CLAIMS",
      "outputs": [
        {
          "internalType": "uint256",
          "name": "",
          "type": "uint256"
        }
      ],
      "stateMutability": "view",
      "type": "function"
    },
    {
      "inputs": [
        {
          "internalType": "address",
          "name": "owner",
          "type": "address"
        },
        {
          "internalType": "address",
          "name": "spender",
          "type": "address"
        }
      ],
      "name": "allowance",
      "outputs": [
        {
          "internalType": "uint256",
          "name": "",
          "type": "uint256"
        }
      ],
      "stateMutability": "view",
      "type": "function"
    },
    {
      "inputs": [
        {
          "internalType": "address",
          "name": "spender",
          "type": "address"
        },
        {
          "internalType": "uint256",
          "name": "value",
          "type": "uint256"
        }
      ],
      "name": "approve",
      "outputs": [
        {
          "internalType": "bool",
          "name": "",
          "type": "bool"
        }
      ],
      "stateMutability": "nonpayable",
      "type": "function"
    },
    {
      "inputs": [
        {
          "internalType": "address",
          "name": "account",
          "type": "address"
        }
      ],
      "name": "balanceOf",
      "outputs": [
        {
          "internalType": "uint256",
          "name": "",
          "type": "uint256"
        }
      ],
      "stateMutability": "view",
      "type": "function"
    },
    {
      "inputs": [
        {
          "internalType": "address",
          "name": "",
          "type": "address"
        }
      ],
      "name": "claimCount",
      "outputs": [
        {
          "internalType": "uint256",
          "name": "",
          "type": "uint256"
        }
      ],
      "stateMutability": "view",
      "type": "function"
    },
    {
      "inputs": [],
      "name": "claimTokens",
      "outputs": [],
      "stateMutability": "nonpayable",
      "type": "function"
    },
    {
      "inputs": [],
      "name": "decimals",
      "outputs": [
        {
          "internalType": "uint8",
          "name": "",
          "type": "uint8"
        }
      ],
      "stateMutability": "view",
      "type": "function"
    },
    {
      "inputs": [
        {
          "internalType": "address",
          "name": "user",
          "type": "address"
        }
      ],
      "name": "getRemainingClaims",
      "outputs": [
        {
          "internalType": "uint256",
          "name": "",
          "type": "uint256"
        }
      ],
      "stateMutability": "view",
      "type": "function"
    },
    {
      "inputs": [],
      "name": "name",
      "outputs": [
        {
          "internalType": "string",
          "name": "",
          "type": "string"
        }
      ],
      "stateMutability": "view",
      "type": "function"
    },
    {
      "inputs": [],
      "name": "owner",
      "outputs": [
        {
          "internalType": "address",
          "name": "",
          "type": "address"
        }
      ],
      "stateMutability": "view",
      "type": "function"
    },
    {
      "inputs": [],
      "name": "renounceOwnership",
      "outputs": [],
      "stateMutability": "nonpayable",
      "type": "function"
    },
    {
      "inputs": [],
      "name": "symbol",
      "outputs": [
        {
          "internalType": "string",
          "name": "",
          "type": "string"
        }
      ],
      "stateMutability": "view",
      "type": "function"
    },
    {
      "inputs": [],
      "name": "totalSupply",
      "outputs": [
        {
          "internalType": "uint256",
          "name": "",
          "type": "uint256"
        }
      ],
      "stateMutability": "view",
      "type": "function"
    },
    {
      "inputs": [
        {
          "internalType": "address",
          "name": "to",
          "type": "address"
        },
        {
          "internalType": "uint256",
          "name": "value",
          "type": "uint256"
        }
      ],
      "name": "transfer",
      "outputs": [
        {
          "internalType": "bool",
          "name": "",
          "type": "bool"
        }
      ],
      "stateMutability": "nonpayable",
      "type": "function"
    },
    {
      "inputs": [
        {
          "internalType": "address",
          "name": "from",
          "type": "address"
        },
        {
          "internalType": "address",
          "name": "to",
          "type": "address"
        },
        {
          "internalType": "uint256",
          "name": "value",
          "type": "uint256"
        }
      ],
      "name": "transferFrom",
      "outputs": [
        {
          "internalType": "bool",
          "name": "",
          "type": "bool"
        }
      ],
      "stateMutability": "nonpayable",
      "type": "function"
    },
    {
      "inputs": [
        {
          "internalType": "address",
          "name": "newOwner",
          "type": "address"
        }
      ],
      "name": "transferOwnership",
      "outputs": [],
      "stateMutability": "nonpayable",
      "type": "function"
    }
  ],
  "bytecode": "0x60806040523480156200001157600080fd5b50336040518060400160405280600981526020017f42657420546f6b656e00000000000000000000000000000000000000000000008152506040518060400160405280600381526020017f424554000000000000000000000000000000000000000000000000000000000081525081600390816200009091906200074b565b508060049081620000a291906200074b565b505050600073ffffffffffffffffffffffffffffffffffffffff168173ffffffffffffffffffffffffffffffffffffffff16036200011a5760006040517f1e4fbdf700000000000000000000000000000000000000000000000000000000815260040162000111919062000877565b60405180910390fd5b6200012b816200014e60201b60201c565b50620001483369d3c21bcecceda10000006200021460201b60201c565b62000969565b6000600560009054906101000a900473ffffffffffffffffffffffffffffffffffffffff16905081600560006101000a81548173ffffffffffffffffffffffffffffffffffffffff021916908373ffffffffffffffffffffffffffffffffffffffff1602179055508173ffffffffffffffffffffffffffffffffffffffff168173ffffffffffffffffffffffffffffffffffffffff167f8be0079c531659141344cd1fd0a4f28419497f9722a3daafe3b4186f6b6457e060405160405180910390a35050565b600073ffffffffffffffffffffffffffffffffffffffff168273ffffffffffffffffffffffffffffffffffffffff1603620002895760006040517fec442f0500000000000000000000000000000000000000000000000000000000815260040162000280919062000877565b60405180910390fd5b6200029d60008383620002a160201b60201c565b5050565b600073ffffffffffffffffffffffffffffffffffffffff168373ffffffffffffffffffffffffffffffffffffffff1603620002f7578060026000828254620002ea9190620008c3565b92505081905550620003cd565b60008060008573ffffffffffffffffffffffffffffffffffffffff1673ffffffffffffffffffffffffffffffffffffffff1681526020019081526020016000205490508181101562000386578381836040517fe450d38c0000000000000000000000000000000000000000000000000000000081526004016200037d939291906200090f565b60405180910390fd5b8181036000808673ffffffffffffffffffffffffffffffffffffffff1673ffffffffffffffffffffffffffffffffffffffff16815260200190815260200160002081905550505b600073ffffffffffffffffffffffffffffffffffffffff168273ffffffffffffffffffffffffffffffffffffffff160362000418578060026000828254039250508190555062000465565b806000808473ffffffffffffffffffffffffffffffffffffffff1673ffffffffffffffffffffffffffffffffffffffff168152602001908152602001600020600082825401925050819055505b8173ffffffffffffffffffffffffffffffffffffffff168373ffffffffffffffffffffffffffffffffffffffff167fddf252ad1be2c89b69c2b068fc378daa952ba7f163c4a11628f55a4df523b3ef83604051620004c491906200094c565b60405180910390a3505050565b600081519050919050565b7f4e487b7100000000000000000000000000000000000000000000000000000000600052604160045260246000fd5b7f4e487b7100000000000000000000000000000000000000000000000000000000600052602260045260246000fd5b600060028204905060018216806200055357607f821691505b6020821081036200056957620005686200050b565b5b50919050565b60008190508160005260206000209050919050565b60006020601f8301049050919050565b600082821b905092915050565b600060088302620005d37fffffffffffffffffffffffffffffffffffffffffffffffffffffffffffffffff8262000594565b620005df868362000594565b95508019841693508086168417925050509392505050565b6000819050919050565b6000819050919050565b60006200062c620006266200062084620005f7565b62000601565b620005f7565b9050919050565b6000819050919050565b62000648836200060b565b62000660620006578262000633565b848454620005a1565b825550505050565b600090565b6200067762000668565b620006848184846200063d565b505050565b5b81811015620006ac57620006a06000826200066d565b6001810190506200068a565b5050565b601f821115620006fb57620006c5816200056f565b620006d08462000584565b81016020851015620006e0578190505b620006f8620006ef8562000584565b83018262000689565b50505b505050565b600082821c905092915050565b6000620007206000198460080262000700565b1980831691505092915050565b60006200073b83836200070d565b9150826002028217905092915050565b6200075682620004d1565b67ffffffffffffffff811115620007725762000771620004dc565b5b6200077e82546200053a565b6200078b828285620006b0565b600060209050601f831160018114620007c35760008415620007ae578287015190505b620007ba85826200072d565b8655506200082a565b601f198416620007d3866200056f565b60005b82811015620007fd57848901518255600182019150602085019450602081019050620007d6565b868310156200081d578489015162000819601f8916826200070d565b8355505b6001600288020188555050505b505050505050565b600073ffffffffffffffffffffffffffffffffffffffff82169050919050565b60006200085f8262000832565b9050919050565b620008718162000852565b82525050565b60006020820190506200088e600083018462000866565b92915050565b7f4e487b7100000000000000000000000000000000000000000000000000000000600052601160045260246000fd5b6000620008d082620005f7565b9150620008dd83620005f7565b9250828201905080821115620008f857620008f762000894565b5b92915050565b6200090981620005f7565b82525050565b600060608201905062000926600083018662000866565b620009356020830185620008fe565b620009446040830184620008fe565b949350505050565b6000602082019050620009636000830184620008fe565b92915050565b6114f480620009796000396000f3fe608060405234801561001057600080fd5b506004361061010b5760003560e01c806370a08231116100a257806395d89b411161007157806395d89b41146102aa578063a9059cbb146102c8578063cf62ba92146102f8578063dd62ed3e14610316578063f2fde38b146103465761010b565b806370a0823114610222578063715018a6146102525780638da5cb5b1461025c5780639478c8b31461027a5761010b565b8063270ef385116100de578063270ef385146101ac578063313ce567146101ca57806348c54b9d146101e857806369c12cb7146101f25761010b565b806306fdde0314610110578063095ea7b31461012e57806318160ddd1461015e57806323b872dd1461017c575b600080fd5b610118610362565b6040516101259190611060565b60405180910390f35b6101486004803603810190610143919061111b565b6103f4565b6040516101559190611176565b60405180910390f35b610166610417565b60405161017391906111a0565b60405180910390f35b610196600480360381019061019191906111bb565b610421565b6040516101a39190611176565b60405180910390f35b6101b4610450565b6040516101c191906111a0565b60405180910390f35b6101d261045d565b6040516101df919061122a565b60405180910390f35b6101f0610466565b005b61020c60048036038101906102079190611245565b6105a9565b60405161021991906111a0565b60405180910390f35b61023c60048036038101906102379190611245565b6105c1565b60405161024991906111a0565b60405180910390f35b61025a610609565b005b61026461061d565b6040516102719190611281565b60405180910390f35b610294600480360381019061028f9190611245565b610647565b6040516102a191906111a0565b60405180910390f35b6102b261069c565b6040516102bf9190611060565b60405180910390f35b6102e260048036038101906102dd919061111b565b61072e565b6040516102ef9190611176565b60405180910390f35b610300610751565b60405161030d91906111a0565b60405180910390f35b610330600480360381019061032b919061129c565b610756565b60405161033d91906111a0565b60405180910390f35b610360600480360381019061035b9190611245565b6107dd565b005b6060600380546103719061130b565b80601f016020809104026020016040519081016040528092919081815260200182805461039d9061130b565b80156103ea5780601f106103bf576101008083540402835291602001916103ea565b820191906000526020600020905b8154815290600101906020018083116103cd57829003601f168201915b5050505050905090565b6000806103ff610863565b905061040c81858561086b565b600191505092915050565b6000600254905090565b60008061042c610863565b905061043985828561087d565b610444858585610911565b60019150509392505050565b683635c9adc5dea0000081565b60006012905090565b600a600660003373ffffffffffffffffffffffffffffffffffffffff1673ffffffffffffffffffffffffffffffffffffffff16815260200190815260200160002054106104e8576040517f08c379a00000000000000000000000000000000000000000000000000000000081526004016104df90611388565b60405180910390fd5b600660003373ffffffffffffffffffffffffffffffffffffffff1673ffffffffffffffffffffffffffffffffffffffff1681526020019081526020016000206000815480929190610538906113d7565b919050555061055033683635c9adc5dea00000610a05565b3373ffffffffffffffffffffffffffffffffffffffff167f896e034966eaaf1adc54acc0f257056febbd300c9e47182cf761982cf1f5e430683635c9adc5dea0000060405161059f91906111a0565b60405180910390a2565b60066020528060005260406000206000915090505481565b60008060008373ffffffffffffffffffffffffffffffffffffffff1673ffffffffffffffffffffffffffffffffffffffff168152602001908152602001600020549050919050565b610611610a87565b61061b6000610b0e565b565b6000600560009054906101000a900473ffffffffffffffffffffffffffffffffffffffff16905090565b6000600660008373ffffffffffffffffffffffffffffffffffffffff1673ffffffffffffffffffffffffffffffffffffffff16815260200190815260200160002054600a610695919061141f565b9050919050565b6060600480546106ab9061130b565b80601f01602080910402602001604051908101604052809291908181526020018280546106d79061130b565b80156107245780601f106106f957610100808354040283529160200191610724565b820191906000526020600020905b81548152906001019060200180831161070757829003601f168201915b5050505050905090565b600080610739610863565b9050610746818585610911565b600191505092915050565b600a81565b6000600160008473ffffffffffffffffffffffffffffffffffffffff1673ffffffffffffffffffffffffffffffffffffffff16815260200190815260200160002060008373ffffffffffffffffffffffffffffffffffffffff1673ffffffffffffffffffffffffffffffffffffffff16815260200190815260200160002054905092915050565b6107e5610a87565b600073ffffffffffffffffffffffffffffffffffffffff168173ffffffffffffffffffffffffffffffffffffffff16036108575760006040517f1e4fbdf700000000000000000000000000000000000000000000000000000000815260040161084e9190611281565b60405180910390fd5b61086081610b0e565b50565b600033905090565b6108788383836001610bd4565b505050565b60006108898484610756565b90507fffffffffffffffffffffffffffffffffffffffffffffffffffffffffffffffff811461090b57818110156108fb578281836040517ffb8f41b20000000000000000000000000000000000000000000000000000000081526004016108f293929190611453565b60405180910390fd5b61090a84848484036000610bd4565b5b50505050565b600073ffffffffffffffffffffffffffffffffffffffff168373ffffffffffffffffffffffffffffffffffffffff16036109835760006040517f96c6fd1e00000000000000000000000000000000000000000000000000000000815260040161097a9190611281565b60405180910390fd5b600073ffffffffffffffffffffffffffffffffffffffff168273ffffffffffffffffffffffffffffffffffffffff16036109f55760006040517fec442f050000000000000000000000000000000000000000000000000000000081526004016109ec9190611281565b60405180910390fd5b610a00838383610dab565b505050565b600073ffffffffffffffffffffffffffffffffffffffff168273ffffffffffffffffffffffffffffffffffffffff1603610a775760006040517fec442f05000000000000000000000000000000000000000000000000000000008152600401610a6e9190611281565b60405180910390fd5b610a8360008383610dab565b5050565b610a8f610863565b73ffffffffffffffffffffffffffffffffffffffff16610aad61061d565b73ffffffffffffffffffffffffffffffffffffffff1614610b0c57610ad0610863565b6040517f118cdaa7000000000000000000000000000000000000000000000000000000008152600401610b039190611281565b60405180910390fd5b565b6000600560009054906101000a900473ffffffffffffffffffffffffffffffffffffffff16905081600560006101000a81548173ffffffffffffffffffffffffffffffffffffffff021916908373ffffffffffffffffffffffffffffffffffffffff1602179055508173ffffffffffffffffffffffffffffffffffffffff168173ffffffffffffffffffffffffffffffffffffffff167f8be0079c531659141344cd1fd0a4f28419497f9722a3daafe3b4186f6b6457e060405160405180910390a35050565b600073ffffffffffffffffffffffffffffffffffffffff168473ffffffffffffffffffffffffffffffffffffffff1603610c465760006040517fe602df05000000000000000000000000000000000000000000000000000000008152600401610c3d9190611281565b60405180910390fd5b600073ffffffffffffffffffffffffffffffffffffffff168373ffffffffffffffffffffffffffffffffffffffff1603610cb85760006040517f94280d62000000000000000000000000000000000000000000000000000000008152600401610caf9190611281565b60405180910390fd5b81600160008673ffffffffffffffffffffffffffffffffffffffff1673ffffffffffffffffffffffffffffffffffffffff16815260200190815260200160002060008573ffffffffffffffffffffffffffffffffffffffff1673ffffffffffffffffffffffffffffffffffffffff168152602001908152602001600020819055508015610da5578273ffffffffffffffffffffffffffffffffffffffff168473ffffffffffffffffffffffffffffffffffffffff167f8c5be1e5ebec7d5bd14f71427d1e84f3dd0314c0f7b2291e5b200ac8c7c3b92584604051610d9c91906111a0565b60405180910390a35b50505050565b600073ffffffffffffffffffffffffffffffffffffffff168373ffffffffffffffffffffffffffffffffffffffff1603610dfd578060026000828254610df1919061148a565b92505081905550610ed0565b60008060008573ffffffffffffffffffffffffffffffffffffffff1673ffffffffffffffffffffffffffffffffffffffff16815260200190815260200160002054905081811015610e89578381836040517fe450d38c000000000000000000000000000000000000000000000000000000008152600401610e8093929190611453565b60405180910390fd5b8181036000808673ffffffffffffffffffffffffffffffffffffffff1673ffffffffffffffffffffffffffffffffffffffff16815260200190815260200160002081905550505b600073ffffffffffffffffffffffffffffffffffffffff168273ffffffffffffffffffffffffffffffffffffffff1603610f195780600260008282540392505081905550610f66565b806000808473ffffffffffffffffffffffffffffffffffffffff1673ffffffffffffffffffffffffffffffffffffffff168152602001908152602001600020600082825401925050819055505b8173ffffffffffffffffffffffffffffffffffffffff168373ffffffffffffffffffffffffffffffffffffffff167fddf252ad1be2c89b69c2b068fc378daa952ba7f163c4a11628f55a4df523b3ef83604051610fc391906111a0565b60405180910390a3505050565b600081519050919050565b600082825260208201905092915050565b60005b8381101561100a578082015181840152602081019050610fef565b60008484015250505050565b6000601f19601f8301169050919050565b600061103282610fd0565b61103c8185610fdb565b935061104c818560208601610fec565b61105581611016565b840191505092915050565b6000602082019050818103600083015261107a8184611027565b905092915050565b600080fd5b600073ffffffffffffffffffffffffffffffffffffffff82169050919050565b60006110b282611087565b9050919050565b6110c2816110a7565b81146110cd57600080fd5b50565b6000813590506110df816110b9565b92915050565b6000819050919050565b6110f8816110e5565b811461110357600080fd5b50565b600081359050611115816110ef565b92915050565b6000806040838503121561113257611131611082565b5b6000611140858286016110d0565b925050602061115185828601611106565b9150509250929050565b60008115159050919050565b6111708161115b565b82525050565b600060208201905061118b6000830184611167565b92915050565b61119a816110e5565b82525050565b60006020820190506111b56000830184611191565b92915050565b6000806000606084860312156111d4576111d3611082565b5b60006111e2868287016110d0565b93505060206111f3868287016110d0565b925050604061120486828701611106565b9150509250925092565b600060ff82169050919050565b6112248161120e565b82525050565b600060208201905061123f600083018461121b565b92915050565b60006020828403121561125b5761125a611082565b5b6000611269848285016110d0565b91505092915050565b61127b816110a7565b82525050565b60006020820190506112966000830184611272565b92915050565b600080604083850312156112b3576112b2611082565b5b60006112c1858286016110d0565b92505060206112d2858286016110d0565b9150509250929050565b7f4e487b7100000000000000000000000000000000000000000000000000000000600052602260045260246000fd5b6000600282049050600182168061132357607f821691505b602082108103611336576113356112dc565b5b50919050565b7f4d6178696d756d20636c61696d73207265616368656400000000000000000000600082015250565b6000611372601683610fdb565b915061137d8261133c565b602082019050919050565b600060208201905081810360008301526113a181611365565b9050919050565b7f4e487b7100000000000000000000000000000000000000000000000000000000600052601160045260246000fd5b60006113e2826110e5565b91507fffffffffffffffffffffffffffffffffffffffffffffffffffffffffffffffff8203611414576114136113a8565b5b600182019050919050565b600061142a826110e5565b9150611435836110e5565b925082820390508181111561144d5761144c6113a8565b5b92915050565b60006060820190506114686000830186611272565b6114756020830185611191565b6114826040830184611191565b949350505050565b6000611495826110e5565b91506114a0836110e5565b92508282019050808211156114b8576114b76113a8565b5b9291505056fea26469706673582212202c6e2f21f272fe4a7ba14f0ed7d1cd34d1479f7c6ba6894de46e54248ec4ee6564736f6c63430008140033",
  "linkReferences": {},
  "deployedLinkReferences": {}
}