{
  "_format": "hh-sol-artifact-1",
  "contractName": "BettingSystem",
  "sourceName": "contracts/BettingSystem.sol",
  "abi": [
    {
      "inputs": [
        {
          "internalType": "address",
          "name": "_betTokenAddress",
          "type": "address"
        }
      ],
      "stateMutability": "nonpayable",
      "type": "constructor"
    },
    {
      "inputs": [
        {
          "internalType": "address",
          "name": "owner",
          "type": "address"
        }
      ],
      "name": "OwnableInvalidOwner",
      "type": "error"
    },
    {
      "inputs": [
        {
          "internalType": "address",
          "name": "account",
          "type": "address"
        }
      ],
      "name": "OwnableUnauthorizedAccount",
      "type": "error"
    },
    {
      "inputs": [],
      "name": "ReentrancyGuardReentrantCall",
      "type": "error"
    },
    {
      "anonymous": false,
      "inputs": [
        {
          "indexed": true,
          "internalType": "address",
          "name": "admin",
          "type": "address"
        },
        {
          "indexed": false,
          "internalType": "uint256",
          "name": "amount",
          "type": "uint256"
        }
      ],
      "name": "AdminWithdraw",
      "type": "event"
    },
    {
      "anonymous": false,
      "inputs": [
        {
          "indexed": true,
          "internalType": "uint256",
          "name": "orderId",
          "type": "uint256"
        }
      ],
      "name": "OrderCancelled",
      "type": "event"
    },
    {
      "anonymous": false,
      "inputs": [
        {
          "indexed": true,
          "internalType": "uint256",
          "name": "orderId",
          "type": "uint256"
        },
        {
          "indexed": true,
          "internalType": "uint256",
          "name": "projectId",
          "type": "uint256"
        },
        {
          "indexed": false,
          "internalType": "uint256",
          "name": "optionIndex",
          "type": "uint256"
        },
        {
          "indexed": true,
          "internalType": "address",
          "name": "seller",
          "type": "address"
        },
        {
          "indexed": false,
          "internalType": "uint256",
          "name": "amount",
          "type": "uint256"
        },
        {
          "indexed": false,
          "internalType": "uint256",
          "name": "price",
          "type": "uint256"
        }
      ],
      "name": "OrderCreated",
      "type": "event"
    },
    {
      "anonymous": false,
      "inputs": [
        {
          "indexed": true,
          "internalType": "address",
          "name": "previousOwner",
          "type": "address"
        },
        {
          "indexed": true,
          "internalType": "address",
          "name": "newOwner",
          "type": "address"
        }
      ],
      "name": "OwnershipTransferred",
      "type": "event"
    },
    {
      "anonymous": false,
      "inputs": [
        {
          "indexed": true,
          "internalType": "uint256",
          "name": "projectId",
          "type": "uint256"
        },
        {
          "indexed": false,
          "internalType": "string",
          "name": "name",
          "type": "string"
        },
        {
          "indexed": true,
          "internalType": "address",
          "name": "creator",
          "type": "address"
        },
        {
          "indexed": false,
          "internalType": "uint256",
          "name": "baseReward",
          "type": "uint256"
        },
        {
          "indexed": false,
          "internalType": "uint256",
          "name": "deadline",
          "type": "uint256"
        }
      ],
      "name": "ProjectCreated",
      "type": "event"
    },
    {
      "anonymous": false,
      "inputs": [
        {
          "indexed": true,
          "internalType": "uint256",
          "name": "projectId",
          "type": "uint256"
        },
        {
          "indexed": false,
          "internalType": "uint256",
          "name": "winningOption",
          "type": "uint256"
        },
        {
          "indexed": false,
          "internalType": "uint256",
          "name": "totalReward",
          "type": "uint256"
        }
      ],
      "name": "ProjectSettled",
      "type": "event"
    },
    {
      "anonymous": false,
      "inputs": [
        {
          "indexed": true,
          "internalType": "uint256",
          "name": "projectId",
          "type": "uint256"
        },
        {
          "indexed": true,
          "internalType": "address",
          "name": "winner",
          "type": "address"
        },
        {
          "indexed": false,
          "internalType": "uint256",
          "name": "optionIndex",
          "type": "uint256"
        },
        {
          "indexed": false,
          "internalType": "uint256",
          "name": "amount",
          "type": "uint256"
        }
      ],
      "name": "RewardClaimed",
      "type": "event"
    },
    {
      "anonymous": false,
      "inputs": [
        {
          "indexed": true,
          "internalType": "uint256",
          "name": "projectId",
          "type": "uint256"
        },
        {
          "indexed": true,
          "internalType": "address",
          "name": "buyer",
          "type": "address"
        },
        {
          "indexed": false,
          "internalType": "uint256",
          "name": "optionIndex",
          "type": "uint256"
        },
        {
          "indexed": false,
          "internalType": "uint256",
          "name": "amount",
          "type": "uint256"
        }
      ],
      "name": "TicketPurchased",
      "type": "event"
    },
    {
      "anonymous": false,
      "inputs": [
        {
          "indexed": true,
          "internalType": "uint256",
          "name": "orderId",
          "type": "uint256"
        },
        {
          "indexed": true,
          "internalType": "uint256",
          "name": "projectId",
          "type": "uint256"
        },
        {
          "indexed": true,
          "internalType": "address",
          "name": "buyer",
          "type": "address"
        },
        {
          "indexed": false,
          "internalType": "address",
          "name": "seller",
          "type": "address"
        },
        {
          "indexed": false,
          "internalType": "uint256",
          "name": "amount",
          "type": "uint256"
        },
        {
          "indexed": false,
          "internalType": "uint256",
          "name": "price",
          "type": "uint256"
        }
      ],
      "name": "TicketTraded",
      "type": "event"
    },
    {
      "inputs": [],
      "name": "MIN_BET_AMOUNT",
      "outputs": [
        {
          "internalType": "uint256",
          "name": "",
          "type": "uint256"
        }
      ],
      "stateMutability": "view",
      "type": "function"
    },
    {
      "inputs": [
        {
          "internalType": "uint256",
          "name": "amount",
          "type": "uint256"
        }
      ],
      "name": "adminWithdraw",
      "outputs": [],
      "stateMutability": "nonpayable",
      "type": "function"
    },
    {
      "inputs": [],
      "name": "betToken",
      "outputs": [
        {
          "internalType": "contract BetToken",
          "name": "",
          "type": "address"
        }
      ],
      "stateMutability": "view",
      "type": "function"
    },
    {
      "inputs": [
        {
          "internalType": "uint256",
          "name": "orderId",
          "type": "uint256"
        }
      ],
      "name": "buyTicketFromOrder",
      "outputs": [],
      "stateMutability": "nonpayable",
      "type": "function"
    },
    {
      "inputs": [
        {
          "internalType": "uint256",
          "name": "orderId",
          "type": "uint256"
        }
      ],
      "name": "cancelOrder",
      "outputs": [],
      "stateMutability": "nonpayable",
      "type": "function"
    },
    {
      "inputs": [
        {
          "internalType": "uint256",
          "name": "projectId",
          "type": "uint256"
        },
        {
          "internalType": "uint256",
          "name": "optionIndex",
          "type": "uint256"
        }
      ],
      "name": "claimReward",
      "outputs": [],
      "stateMutability": "nonpayable",
      "type": "function"
    },
    {
      "inputs": [
        {
          "internalType": "string",
          "name": "name",
          "type": "string"
        },
        {
          "internalType": "string",
          "name": "description",
          "type": "string"
        },
        {
          "internalType": "string[]",
          "name": "options",
          "type": "string[]"
        },
        {
          "internalType": "uint256",
          "name": "duration",
          "type": "uint256"
        },
        {
          "internalType": "uint256",
          "name": "baseReward",
          "type": "uint256"
        }
      ],
      "name": "createProject",
      "outputs": [],
      "stateMutability": "nonpayable",
      "type": "function"
    },
    {
      "inputs": [
        {
          "internalType": "uint256",
          "name": "projectId",
          "type": "uint256"
        },
        {
          "internalType": "uint256",
          "name": "optionIndex",
          "type": "uint256"
        },
        {
          "internalType": "uint256",
          "name": "amount",
          "type": "uint256"
        },
        {
          "internalType": "uint256",
          "name": "price",
          "type": "uint256"
        }
      ],
      "name": "createSellOrder",
      "outputs": [
        {
          "internalType": "uint256",
          "name": "",
          "type": "uint256"
        }
      ],
      "stateMutability": "nonpayable",
      "type": "function"
    },
    {
      "inputs": [],
      "name": "getContractBalance",
      "outputs": [
        {
          "internalType": "uint256",
          "name": "",
          "type": "uint256"
        }
      ],
      "stateMutability": "view",
      "type": "function"
    },
    {
      "inputs": [
        {
          "internalType": "uint256",
          "name": "projectId",
          "type": "uint256"
        },
        {
          "internalType": "uint256",
          "name": "optionIndex",
          "type": "uint256"
        }
      ],
      "name": "getOptionStats",
      "outputs": [
        {
          "internalType": "uint256",
          "name": "totalAmount",
          "type": "uint256"
        }
      ],
      "stateMutability": "view",
      "type": "function"
    },
    {
      "inputs": [],
      "name": "getProjectCount",
      "outputs": [
        {
          "internalType": "uint256",
          "name": "",
          "type": "uint256"
        }
      ],
      "stateMutability": "view",
      "type": "function"
    },
    {
      "inputs": [
        {
          "internalType": "uint256",
          "name": "projectId",
          "type": "uint256"
        }
      ],
      "name": "getProjectInfo",
      "outputs": [
        {
          "internalType": "string",
          "name": "name",
          "type": "string"
        },
        {
          "internalType": "string",
          "name": "description",
          "type": "string"
        },
        {
          "internalType": "string[]",
          "name": "options",
          "type": "string[]"
        },
        {
          "internalType": "uint256",
          "name": "deadline",
          "type": "uint256"
        },
        {
          "internalType": "uint256",
          "name": "baseReward",
          "type": "uint256"
        },
        {
          "internalType": "uint256",
          "name": "totalPool",
          "type": "uint256"
        },
        {
          "internalType": "enum BettingSystem.ProjectStatus",
          "name": "status",
          "type": "uint8"
        },
        {
          "internalType": "address",
          "name": "creator",
          "type": "address"
        },
        {
          "internalType": "uint256",
          "name": "winningOption",
          "type": "uint256"
        }
      ],
      "stateMutability": "view",
      "type": "function"
    },
    {
      "inputs": [
        {
          "internalType": "uint256",
          "name": "projectId",
          "type": "uint256"
        }
      ],
      "name": "getProjectOrders",
      "outputs": [
        {
          "components": [
            {
              "internalType": "uint256",
              "name": "orderId",
              "type": "uint256"
            },
            {
              "internalType": "uint256",
              "name": "projectId",
              "type": "uint256"
            },
            {
              "internalType": "uint256",
              "name": "optionIndex",
              "type": "uint256"
            },
            {
              "internalType": "address",
              "name": "seller",
              "type": "address"
            },
            {
              "internalType": "uint256",
              "name": "amount",
              "type": "uint256"
            },
            {
              "internalType": "uint256",
              "name": "price",
              "type": "uint256"
            },
            {
              "internalType": "bool",
              "name": "isActive",
              "type": "bool"
            }
          ],
          "internalType": "struct BettingSystem.Order[]",
          "name": "",
          "type": "tuple[]"
        }
      ],
      "stateMutability": "view",
      "type": "function"
    },
    {
      "inputs": [
        {
          "internalType": "uint256",
          "name": "projectId",
          "type": "uint256"
        },
        {
          "internalType": "address",
          "name": "user",
          "type": "address"
        }
      ],
      "name": "getUserAllPositions",
      "outputs": [
        {
          "internalType": "uint256[]",
          "name": "",
          "type": "uint256[]"
        }
      ],
      "stateMutability": "view",
      "type": "function"
    },
    {
      "inputs": [
        {
          "internalType": "uint256",
          "name": "projectId",
          "type": "uint256"
        },
        {
          "internalType": "address",
          "name": "user",
          "type": "address"
        },
        {
          "internalType": "uint256",
          "name": "optionIndex",
          "type": "uint256"
        }
      ],
      "name": "getUserPosition",
      "outputs": [
        {
          "internalType": "uint256",
          "name": "",
          "type": "uint256"
        }
      ],
      "stateMutability": "view",
      "type": "function"
    },
    {
      "inputs": [
        {
          "internalType": "uint256",
          "name": "",
          "type": "uint256"
        }
      ],
      "name": "orders",
      "outputs": [
        {
          "internalType": "uint256",
          "name": "orderId",
          "type": "uint256"
        },
        {
          "internalType": "uint256",
          "name": "projectId",
          "type": "uint256"
        },
        {
          "internalType": "uint256",
          "name": "optionIndex",
          "type": "uint256"
        },
        {
          "internalType": "address",
          "name": "seller",
          "type": "address"
        },
        {
          "internalType": "uint256",
          "name": "amount",
          "type": "uint256"
        },
        {
          "internalType": "uint256",
          "name": "price",
          "type": "uint256"
        },
        {
          "internalType": "bool",
          "name": "isActive",
          "type": "bool"
        }
      ],
      "stateMutability": "view",
      "type": "function"
    },
    {
      "inputs": [],
      "name": "owner",
      "outputs": [
        {
          "internalType": "address",
          "name": "",
          "type": "address"
        }
      ],
      "stateMutability": "view",
      "type": "function"
    },
    {
      "inputs": [
        {
          "internalType": "uint256",
          "name": "",
          "type": "uint256"
        },
        {
          "internalType": "uint256",
          "name": "",
          "type": "uint256"
        }
      ],
      "name": "projectOrders",
      "outputs": [
        {
          "internalType": "uint256",
          "name": "",
          "type": "uint256"
        }
      ],
      "stateMutability": "view",
      "type": "function"
    },
    {
      "inputs": [
        {
          "internalType": "uint256",
          "name": "",
          "type": "uint256"
        }
      ],
      "name": "projects",
      "outputs": [
        {
          "internalType": "uint256",
          "name": "id",
          "type": "uint256"
        },
        {
          "internalType": "string",
          "name": "name",
          "type": "string"
        },
        {
          "internalType": "string",
          "name": "description",
          "type": "string"
        },
        {
          "internalType": "uint256",
          "name": "deadline",
          "type": "uint256"
        },
        {
          "internalType": "uint256",
          "name": "baseReward",
          "type": "uint256"
        },
        {
          "internalType": "uint256",
          "name": "totalPool",
          "type": "uint256"
        },
        {
          "internalType": "enum BettingSystem.ProjectStatus",
          "name": "status",
          "type": "uint8"
        },
        {
          "internalType": "address",
          "name": "creator",
          "type": "address"
        },
        {
          "internalType": "uint256",
          "name": "winningOption",
          "type": "uint256"
        }
      ],
      "stateMutability": "view",
      "type": "function"
    },
    {
      "inputs": [
        {
          "internalType": "uint256",
          "name": "projectId",
          "type": "uint256"
        },
        {
          "internalType": "uint256",
          "name": "optionIndex",
          "type": "uint256"
        },
        {
          "internalType": "uint256",
          "name": "amount",
          "type": "uint256"
        }
      ],
      "name": "purchaseTicket",
      "outputs": [],
      "stateMutability": "nonpayable",
      "type": "function"
    },
    {
      "inputs": [],
      "name": "renounceOwnership",
      "outputs": [],
      "stateMutability": "nonpayable",
      "type": "function"
    },
    {
      "inputs": [
        {
          "internalType": "uint256",
          "name": "",
          "type": "uint256"
        },
        {
          "internalType": "address",
          "name": "",
          "type": "address"
        },
        {
          "internalType": "uint256",
          "name": "",
          "type": "uint256"
        }
      ],
      "name": "rewardClaimed",
      "outputs": [
        {
          "internalType": "bool",
          "name": "",
          "type": "bool"
        }
      ],
      "stateMutability": "view",
      "type": "function"
    },
    {
      "inputs": [
        {
          "internalType": "uint256",
          "name": "projectId",
          "type": "uint256"
        },
        {
          "internalType": "uint256",
          "name": "winningOption",
          "type": "uint256"
        }
      ],
      "name": "settleProject",
      "outputs": [],
      "stateMutability": "nonpayable",
      "type": "function"
    },
    {
      "inputs": [
        {
          "internalType": "address",
          "name": "newOwner",
          "type": "address"
        }
      ],
      "name": "transferOwnership",
      "outputs": [],
      "stateMutability": "nonpayable",
      "type": "function"
    },
    {
      "inputs": [
        {
          "internalType": "uint256",
          "name": "projectId",
          "type": "uint256"
        }
      ],
      "name": "updateProjectStatus",
      "outputs": [],
      "stateMutability": "nonpayable",
      "type": "function"
    },
    {
      "inputs": [
        {
          "internalType": "uint256",
          "name": "",
          "type": "uint256"
        },
        {
          "internalType": "address",
          "name": "",
          "type": "address"
        },
        {
          "internalType": "uint256",
          "name": "",
          "type": "uint256"
        }
      ],
      "name": "userPositions",
      "outputs": [
        {
          "internalType": "uint256",
          "name": "",
          "type": "uint256"
        }
      ],
      "stateMutability": "view",
      "type": "function"
    }
  ],
  "bytecode": "0x60806040523480156200001157600080fd5b50604051620053243803806200532483398181016040528101906200003791906200024c565b33600073ffffffffffffffffffffffffffffffffffffffff168173ffffffffffffffffffffffffffffffffffffffff1603620000ad5760006040517f1e4fbdf7000000000000000000000000000000000000000000000000000000008152600401620000a491906200028f565b60405180910390fd5b620000be816200011e60201b60201c565b506001808190555080600260006101000a81548173ffffffffffffffffffffffffffffffffffffffff021916908373ffffffffffffffffffffffffffffffffffffffff1602179055506001600381905550600160048190555050620002ac565b60008060009054906101000a900473ffffffffffffffffffffffffffffffffffffffff169050816000806101000a81548173ffffffffffffffffffffffffffffffffffffffff021916908373ffffffffffffffffffffffffffffffffffffffff1602179055508173ffffffffffffffffffffffffffffffffffffffff168173ffffffffffffffffffffffffffffffffffffffff167f8be0079c531659141344cd1fd0a4f28419497f9722a3daafe3b4186f6b6457e060405160405180910390a35050565b600080fd5b600073ffffffffffffffffffffffffffffffffffffffff82169050919050565b60006200021482620001e7565b9050919050565b620002268162000207565b81146200023257600080fd5b50565b60008151905062000246816200021b565b92915050565b600060208284031215620002655762000264620001e2565b5b6000620002758482850162000235565b91505092915050565b620002898162000207565b82525050565b6000602082019050620002a660008301846200027e565b92915050565b61506880620002bc6000396000f3fe608060405234801561001057600080fd5b506004361061018e5760003560e01c80637bf3ee1c116100de578063ba52d16011610097578063f2fde38b11610071578063f2fde38b146104b5578063f7ce1206146104d1578063f7dbadb7146104ed578063fabf59681461051d5761018e565b8063ba52d16014610439578063c96738ed14610455578063e69479dd146104855761018e565b80637bf3ee1c146103615780637c5b4a371461037d57806386bb8f371461039957806386d65785146103b55780638da5cb5b146103e5578063a85c38ef146104035761018e565b806361952cd41161014b57806371192b171161012557806371192b17146102d9578063715018a6146103095780637554cf711461031357806378691f16146103435761018e565b806361952cd4146102815780636475e3d31461029d5780636f9fb98a146102bb5761018e565b8063107046bd1461019357806337609bb2146101cb5780633bcff3b0146101fb578063514fcac714610219578063543e9628146102355780635ece312214610265575b600080fd5b6101ad60048036038101906101a8919061322b565b610555565b6040516101c2999897969594939291906133af565b60405180910390f35b6101e560048036038101906101e0919061344a565b6106e0565b6040516101f291906134b1565b60405180910390f35b610203610b9d565b60405161021091906134b1565b60405180910390f35b610233600480360381019061022e919061322b565b610bb3565b005b61024f600480360381019061024a91906134cc565b610d7f565b60405161025c91906134b1565b60405180910390f35b61027f600480360381019061027a919061350c565b610db6565b005b61029b6004803603810190610296919061377a565b6111ff565b005b6102a5611546565b6040516102b291906134b1565b60405180910390f35b6102c3611552565b6040516102d091906134b1565b60405180910390f35b6102f360048036038101906102ee9190613875565b6115f5565b60405161030091906138e3565b60405180910390f35b610311611631565b005b61032d600480360381019061032891906138fe565b611645565b60405161033a91906139fc565b60405180910390f35b61034b611764565b6040516103589190613a7d565b60405180910390f35b61037b600480360381019061037691906134cc565b61178a565b005b6103976004803603810190610392919061322b565b6119fd565b005b6103b360048036038101906103ae91906134cc565b611c46565b005b6103cf60048036038101906103ca919061322b565b61211c565b6040516103dc9190613bf3565b60405180910390f35b6103ed6123c7565b6040516103fa9190613c15565b60405180910390f35b61041d6004803603810190610418919061322b565b6123f0565b6040516104309796959493929190613c30565b60405180910390f35b610453600480360381019061044e919061322b565b61245f565b005b61046f600480360381019061046a9190613875565b612875565b60405161047c91906134b1565b60405180910390f35b61049f600480360381019061049a91906134cc565b6128e2565b6040516104ac91906134b1565b60405180910390f35b6104cf60048036038101906104ca9190613c9f565b612913565b005b6104eb60048036038101906104e6919061322b565b612999565b005b61050760048036038101906105029190613875565b612a77565b60405161051491906134b1565b60405180910390f35b6105376004803603810190610532919061322b565b612aa9565b60405161054c99989796959493929190613dd8565b60405180910390f35b600660205280600052604060002060009150905080600001549080600101805461057e90613ea9565b80601f01602080910402602001604051908101604052809291908181526020018280546105aa90613ea9565b80156105f75780601f106105cc576101008083540402835291602001916105f7565b820191906000526020600020905b8154815290600101906020018083116105da57829003601f168201915b50505050509080600201805461060c90613ea9565b80601f016020809104026020016040519081016040528092919081815260200182805461063890613ea9565b80156106855780601f1061065a57610100808354040283529160200191610685565b820191906000526020600020905b81548152906001019060200180831161066857829003601f168201915b5050505050908060040154908060050154908060060154908060070160009054906101000a900460ff16908060070160019054906101000a900473ffffffffffffffffffffffffffffffffffffffff16908060080154905089565b600080600660008781526020019081526020016000209050600081600001540361073f576040517f08c379a000000000000000000000000000000000000000000000000000000000815260040161073690613f26565b60405180910390fd5b60006003811115610753576107526132f7565b5b8160070160009054906101000a900460ff166003811115610777576107766132f7565b5b146107b7576040517f08c379a00000000000000000000000000000000000000000000000000000000081526004016107ae90613f92565b60405180910390fd5b806004015442106107fd576040517f08c379a00000000000000000000000000000000000000000000000000000000081526004016107f490613ffe565b60405180910390fd5b80600301805490508510610846576040517f08c379a000000000000000000000000000000000000000000000000000000000815260040161083d9061406a565b60405180910390fd5b60008411610889576040517f08c379a0000000000000000000000000000000000000000000000000000000008152600401610880906140d6565b60405180910390fd5b600083116108cc576040517f08c379a00000000000000000000000000000000000000000000000000000000081526004016108c390614142565b60405180910390fd5b836005600088815260200190815260200160002060003373ffffffffffffffffffffffffffffffffffffffff1673ffffffffffffffffffffffffffffffffffffffff1681526020019081526020016000206000878152602001908152602001600020541015610970576040517f08c379a0000000000000000000000000000000000000000000000000000000008152600401610967906141ae565b60405180910390fd5b836005600088815260200190815260200160002060003373ffffffffffffffffffffffffffffffffffffffff1673ffffffffffffffffffffffffffffffffffffffff168152602001908152602001600020600087815260200190815260200160002060008282546109e191906141fd565b925050819055506000600454905060046000815480929190610a0290614231565b91905055506040518060e001604052808281526020018881526020018781526020013373ffffffffffffffffffffffffffffffffffffffff168152602001868152602001858152602001600115158152506007600083815260200190815260200160002060008201518160000155602082015181600101556040820151816002015560608201518160030160006101000a81548173ffffffffffffffffffffffffffffffffffffffff021916908373ffffffffffffffffffffffffffffffffffffffff1602179055506080820151816004015560a0820151816005015560c08201518160060160006101000a81548160ff021916908315150217905550905050600860008881526020019081526020016000208190806001815401808255809150506001900390600052602060002001600090919091909150553373ffffffffffffffffffffffffffffffffffffffff1687827f89344cebe06e0920cd291843b7ff1cb74813286042440756ff128c15ac762b98898989604051610b8893929190614279565b60405180910390a48092505050949350505050565b60006001600354610bae91906141fd565b905090565b60006007600083815260200190815260200160002090508060060160009054906101000a900460ff16610c1b576040517f08c379a0000000000000000000000000000000000000000000000000000000008152600401610c12906142fc565b60405180910390fd5b3373ffffffffffffffffffffffffffffffffffffffff168160030160009054906101000a900473ffffffffffffffffffffffffffffffffffffffff1673ffffffffffffffffffffffffffffffffffffffff1614610cad576040517f08c379a0000000000000000000000000000000000000000000000000000000008152600401610ca490614368565b60405180910390fd5b8060040154600560008360010154815260200190815260200160002060003373ffffffffffffffffffffffffffffffffffffffff1673ffffffffffffffffffffffffffffffffffffffff1681526020019081526020016000206000836002015481526020019081526020016000206000828254610d2a9190614388565b9250508190555060008160060160006101000a81548160ff021916908315150217905550817f61b9399f2f0f32ca39ce8d7be32caed5ec22fe07a6daba3a467ed479ec60658260405160405180910390a25050565b6000806006600085815260200190815260200160002090508060090160008481526020019081526020016000205491505092915050565b610dbe612d30565b60006006600085815260200190815260200160002090506000816000015403610e1c576040517f08c379a0000000000000000000000000000000000000000000000000000000008152600401610e1390613f26565b60405180910390fd5b60006003811115610e3057610e2f6132f7565b5b8160070160009054906101000a900460ff166003811115610e5457610e536132f7565b5b14610e94576040517f08c379a0000000000000000000000000000000000000000000000000000000008152600401610e8b90613f92565b60405180910390fd5b80600401544210610eda576040517f08c379a0000000000000000000000000000000000000000000000000000000008152600401610ed190613ffe565b60405180910390fd5b80600301805490508310610f23576040517f08c379a0000000000000000000000000000000000000000000000000000000008152600401610f1a9061406a565b60405180910390fd5b670de0b6b3a7640000821015610f6e576040517f08c379a0000000000000000000000000000000000000000000000000000000008152600401610f6590614408565b60405180910390fd5b8060070160019054906101000a900473ffffffffffffffffffffffffffffffffffffffff1673ffffffffffffffffffffffffffffffffffffffff163373ffffffffffffffffffffffffffffffffffffffff1603611000576040517f08c379a0000000000000000000000000000000000000000000000000000000008152600401610ff790614474565b60405180910390fd5b600260009054906101000a900473ffffffffffffffffffffffffffffffffffffffff1673ffffffffffffffffffffffffffffffffffffffff166323b872dd3330856040518463ffffffff1660e01b815260040161105f93929190614494565b6020604051808303816000875af115801561107e573d6000803e3d6000fd5b505050506040513d601f19601f820116820180604052508101906110a291906144f7565b6110e1576040517f08c379a00000000000000000000000000000000000000000000000000000000081526004016110d890614570565b60405180910390fd5b818160060160008282546110f59190614388565b925050819055508181600901600085815260200190815260200160002060008282546111219190614388565b92505081905550816005600086815260200190815260200160002060003373ffffffffffffffffffffffffffffffffffffffff1673ffffffffffffffffffffffffffffffffffffffff168152602001908152602001600020600085815260200190815260200160002060008282546111999190614388565b925050819055503373ffffffffffffffffffffffffffffffffffffffff16847fef266bb11bf4b58aa8562ab8c8746e3b84a521780a2c57ca09d87bae13f5eb0985856040516111e9929190614590565b60405180910390a3506111fa612d76565b505050565b600283511015611244576040517f08c379a000000000000000000000000000000000000000000000000000000000815260040161123b90614605565b60405180910390fd5b60008111611287576040517f08c379a000000000000000000000000000000000000000000000000000000000815260040161127e90614671565b60405180910390fd5b600082116112ca576040517f08c379a00000000000000000000000000000000000000000000000000000000081526004016112c1906146dd565b60405180910390fd5b600260009054906101000a900473ffffffffffffffffffffffffffffffffffffffff1673ffffffffffffffffffffffffffffffffffffffff166323b872dd3330846040518463ffffffff1660e01b815260040161132993929190614494565b6020604051808303816000875af1158015611348573d6000803e3d6000fd5b505050506040513d601f19601f8201168201806040525081019061136c91906144f7565b6113ab576040517f08c379a00000000000000000000000000000000000000000000000000000000081526004016113a290614749565b60405180910390fd5b60006003549050600360008154809291906113c590614231565b91905055506000600660008381526020019081526020016000209050818160000181905550868160010190816113fb919061490b565b508581600201908161140d919061490b565b50848160030190805190602001906114269291906130b2565b5083426114339190614388565b816004018190555082816005018190555082816006018190555060008160070160006101000a81548160ff02191690836003811115611475576114746132f7565b5b0217905550338160070160016101000a81548173ffffffffffffffffffffffffffffffffffffffff021916908373ffffffffffffffffffffffffffffffffffffffff1602179055507fffffffffffffffffffffffffffffffffffffffffffffffffffffffffffffffff81600801819055503373ffffffffffffffffffffffffffffffffffffffff16827fcfbb9cc3bd62a88127a0a357ef5745ce183a4f314f3f36a4302bbe74b89e2f1d89868560040154604051611535939291906149dd565b60405180910390a350505050505050565b670de0b6b3a764000081565b6000600260009054906101000a900473ffffffffffffffffffffffffffffffffffffffff1673ffffffffffffffffffffffffffffffffffffffff166370a08231306040518263ffffffff1660e01b81526004016115af9190613c15565b602060405180830381865afa1580156115cc573d6000803e3d6000fd5b505050506040513d601f19601f820116820180604052508101906115f09190614a30565b905090565b6009602052826000526040600020602052816000526040600020602052806000526040600020600092509250509054906101000a900460ff1681565b611639612d7f565b6116436000612e06565b565b606060006006600085815260200190815260200160002090506000816003018054905067ffffffffffffffff81111561168157611680613569565b5b6040519080825280602002602001820160405280156116af5781602001602082028036833780820191505090505b50905060005b8260030180549050811015611758576005600087815260200190815260200160002060008673ffffffffffffffffffffffffffffffffffffffff1673ffffffffffffffffffffffffffffffffffffffff16815260200190815260200160002060008281526020019081526020016000205482828151811061173957611738614a5d565b5b602002602001018181525050808061175090614231565b9150506116b5565b50809250505092915050565b600260009054906101000a900473ffffffffffffffffffffffffffffffffffffffff1681565b600060066000848152602001908152602001600020905060008160000154036117e8576040517f08c379a00000000000000000000000000000000000000000000000000000000081526004016117df90613f26565b60405180910390fd5b3373ffffffffffffffffffffffffffffffffffffffff168160070160019054906101000a900473ffffffffffffffffffffffffffffffffffffffff1673ffffffffffffffffffffffffffffffffffffffff161461187a576040517f08c379a000000000000000000000000000000000000000000000000000000000815260040161187190614ad8565b60405180910390fd5b6000600381111561188e5761188d6132f7565b5b8160070160009054906101000a900460ff1660038111156118b2576118b16132f7565b5b14806118f35750600160038111156118cd576118cc6132f7565b5b8160070160009054906101000a900460ff1660038111156118f1576118f06132f7565b5b145b611932576040517f08c379a000000000000000000000000000000000000000000000000000000000815260040161192990614b44565b60405180910390fd5b8060030180549050821061197b576040517f08c379a000000000000000000000000000000000000000000000000000000000815260040161197290614bb0565b60405180910390fd5b61198483612eca565b60028160070160006101000a81548160ff021916908360038111156119ac576119ab6132f7565b5b0217905550818160080181905550827f0c38482ab63a04e36a2ad3c9d766662eebd8304af6bd8facc7b6e24cd54a60d08383600601546040516119f0929190614590565b60405180910390a2505050565b611a05612d7f565b611a0d612d30565b6000600260009054906101000a900473ffffffffffffffffffffffffffffffffffffffff1673ffffffffffffffffffffffffffffffffffffffff166370a08231306040518263ffffffff1660e01b8152600401611a6a9190613c15565b602060405180830381865afa158015611a87573d6000803e3d6000fd5b505050506040513d601f19601f82011682018060405250810190611aab9190614a30565b905060008111611af0576040517f08c379a0000000000000000000000000000000000000000000000000000000008152600401611ae790614c1c565b60405180910390fd5b60008290506000831480611b0357508183115b15611b0c578190505b600260009054906101000a900473ffffffffffffffffffffffffffffffffffffffff1673ffffffffffffffffffffffffffffffffffffffff1663a9059cbb33836040518363ffffffff1660e01b8152600401611b69929190614c3c565b6020604051808303816000875af1158015611b88573d6000803e3d6000fd5b505050506040513d601f19601f82011682018060405250810190611bac91906144f7565b611beb576040517f08c379a0000000000000000000000000000000000000000000000000000000008152600401611be290614570565b60405180910390fd5b3373ffffffffffffffffffffffffffffffffffffffff167fba443e8671971c36cdeb74f87321041daff421230cbc5e36cb835269ed1d8b7e82604051611c3191906134b1565b60405180910390a25050611c43612d76565b50565b611c4e612d30565b600060066000848152602001908152602001600020905060026003811115611c7957611c786132f7565b5b8160070160009054906101000a900460ff166003811115611c9d57611c9c6132f7565b5b14611cdd576040517f08c379a0000000000000000000000000000000000000000000000000000000008152600401611cd490614cb1565b60405180910390fd5b81816008015414611d23576040517f08c379a0000000000000000000000000000000000000000000000000000000008152600401611d1a90614d1d565b60405180910390fd5b6009600084815260200190815260200160002060003373ffffffffffffffffffffffffffffffffffffffff1673ffffffffffffffffffffffffffffffffffffffff168152602001908152602001600020600083815260200190815260200160002060009054906101000a900460ff1615611dd2576040517f08c379a0000000000000000000000000000000000000000000000000000000008152600401611dc990614d89565b60405180910390fd5b60006005600085815260200190815260200160002060003373ffffffffffffffffffffffffffffffffffffffff1673ffffffffffffffffffffffffffffffffffffffff168152602001908152602001600020600084815260200190815260200160002054905060008111611e7b576040517f08c379a0000000000000000000000000000000000000000000000000000000008152600401611e7290614df5565b60405180910390fd5b60008260090160008460080154815260200190815260200160002054905060008111611edc576040517f08c379a0000000000000000000000000000000000000000000000000000000008152600401611ed390614e61565b60405180910390fd5b600081846006015484611eef9190614e81565b611ef99190614ef2565b905060016009600088815260200190815260200160002060003373ffffffffffffffffffffffffffffffffffffffff1673ffffffffffffffffffffffffffffffffffffffff168152602001908152602001600020600087815260200190815260200160002060006101000a81548160ff02191690831515021790555060006005600088815260200190815260200160002060003373ffffffffffffffffffffffffffffffffffffffff1673ffffffffffffffffffffffffffffffffffffffff168152602001908152602001600020600087815260200190815260200160002081905550600260009054906101000a900473ffffffffffffffffffffffffffffffffffffffff1673ffffffffffffffffffffffffffffffffffffffff1663a9059cbb33836040518363ffffffff1660e01b8152600401612039929190614c3c565b6020604051808303816000875af1158015612058573d6000803e3d6000fd5b505050506040513d601f19601f8201168201806040525081019061207c91906144f7565b6120bb576040517f08c379a00000000000000000000000000000000000000000000000000000000081526004016120b290614f6f565b60405180910390fd5b3373ffffffffffffffffffffffffffffffffffffffff16867ffc6ecd966b430510beae9124efe7dd517ed5286d7ed0ae258f8556c7a9765a448784604051612104929190614590565b60405180910390a350505050612118612d76565b5050565b606060006008600084815260200190815260200160002080548060200260200160405190810160405280929190818152602001828054801561217d57602002820191906000526020600020905b815481526020019060010190808311612169575b505050505090506000805b82518110156121f657600760008483815181106121a8576121a7614a5d565b5b6020026020010151815260200190815260200160002060060160009054906101000a900460ff16156121e35781806121df90614231565b9250505b80806121ee90614231565b915050612188565b5060008167ffffffffffffffff81111561221357612212613569565b5b60405190808252806020026020018201604052801561224c57816020015b61223961310b565b8152602001906001900390816122315790505b5090506000805b84518110156123ba576007600086838151811061227357612272614a5d565b5b6020026020010151815260200190815260200160002060060160009054906101000a900460ff16156123a757600760008683815181106122b6576122b5614a5d565b5b602002602001015181526020019081526020016000206040518060e00160405290816000820154815260200160018201548152602001600282015481526020016003820160009054906101000a900473ffffffffffffffffffffffffffffffffffffffff1673ffffffffffffffffffffffffffffffffffffffff1673ffffffffffffffffffffffffffffffffffffffff16815260200160048201548152602001600582015481526020016006820160009054906101000a900460ff16151515158152505083838151811061238d5761238c614a5d565b5b602002602001018190525081806123a390614231565b9250505b80806123b290614231565b915050612253565b5081945050505050919050565b60008060009054906101000a900473ffffffffffffffffffffffffffffffffffffffff16905090565b60076020528060005260406000206000915090508060000154908060010154908060020154908060030160009054906101000a900473ffffffffffffffffffffffffffffffffffffffff16908060040154908060050154908060060160009054906101000a900460ff16905087565b612467612d30565b60006007600083815260200190815260200160002090508060060160009054906101000a900460ff166124cf576040517f08c379a00000000000000000000000000000000000000000000000000000000081526004016124c6906142fc565b60405180910390fd5b600060066000836001015481526020019081526020016000209050600060038111156124fe576124fd6132f7565b5b8160070160009054906101000a900460ff166003811115612522576125216132f7565b5b14612562576040517f08c379a000000000000000000000000000000000000000000000000000000000815260040161255990613f92565b60405180910390fd5b806004015442106125a8576040517f08c379a000000000000000000000000000000000000000000000000000000000815260040161259f90613ffe565b60405180910390fd5b8060070160019054906101000a900473ffffffffffffffffffffffffffffffffffffffff1673ffffffffffffffffffffffffffffffffffffffff163373ffffffffffffffffffffffffffffffffffffffff160361263a576040517f08c379a000000000000000000000000000000000000000000000000000000000815260040161263190614474565b60405180910390fd5b600260009054906101000a900473ffffffffffffffffffffffffffffffffffffffff1673ffffffffffffffffffffffffffffffffffffffff166323b872dd338460030160009054906101000a900473ffffffffffffffffffffffffffffffffffffffff1685600501546040518463ffffffff1660e01b81526004016126c193929190614494565b6020604051808303816000875af11580156126e0573d6000803e3d6000fd5b505050506040513d601f19601f8201168201806040525081019061270491906144f7565b612743576040517f08c379a000000000000000000000000000000000000000000000000000000000815260040161273a90614fdb565b60405180910390fd5b8160040154600560008460010154815260200190815260200160002060003373ffffffffffffffffffffffffffffffffffffffff1673ffffffffffffffffffffffffffffffffffffffff16815260200190815260200160002060008460020154815260200190815260200160002060008282546127c09190614388565b9250508190555060008260060160006101000a81548160ff0219169083151502179055503373ffffffffffffffffffffffffffffffffffffffff168260010154847feee5cbfcc7017124145c927064ed674a2c038bfc77ebc70ec715f0bac13b5d0a8560030160009054906101000a900473ffffffffffffffffffffffffffffffffffffffff168660040154876005015460405161286093929190614ffb565b60405180910390a45050612872612d76565b50565b60006005600085815260200190815260200160002060008473ffffffffffffffffffffffffffffffffffffffff1673ffffffffffffffffffffffffffffffffffffffff16815260200190815260200160002060008381526020019081526020016000205490509392505050565b600860205281600052604060002081815481106128fe57600080fd5b90600052602060002001600091509150505481565b61291b612d7f565b600073ffffffffffffffffffffffffffffffffffffffff168173ffffffffffffffffffffffffffffffffffffffff160361298d5760006040517f1e4fbdf70000000000000000000000000000000000000000000000000000000081526004016129849190613c15565b60405180910390fd5b61299681612e06565b50565b600060066000838152602001908152602001600020905060008160000154036129f7576040517f08c379a00000000000000000000000000000000000000000000000000000000081526004016129ee90613f26565b60405180910390fd5b60006003811115612a0b57612a0a6132f7565b5b8160070160009054906101000a900460ff166003811115612a2f57612a2e6132f7565b5b148015612a40575080600401544210155b15612a735760018160070160006101000a81548160ff02191690836003811115612a6d57612a6c6132f7565b5b02179055505b5050565b600560205282600052604060002060205281600052604060002060205280600052604060002060009250925050505481565b60608060606000806000806000806000600660008c815260200190815260200160002090508060010181600201826003018360040154846005015485600601548660070160009054906101000a900460ff168760070160019054906101000a900473ffffffffffffffffffffffffffffffffffffffff168860080154888054612b3190613ea9565b80601f0160208091040260200160405190810160405280929190818152602001828054612b5d90613ea9565b8015612baa5780601f10612b7f57610100808354040283529160200191612baa565b820191906000526020600020905b815481529060010190602001808311612b8d57829003601f168201915b50505050509850878054612bbd90613ea9565b80601f0160208091040260200160405190810160405280929190818152602001828054612be990613ea9565b8015612c365780601f10612c0b57610100808354040283529160200191612c36565b820191906000526020600020905b815481529060010190602001808311612c1957829003601f168201915b5050505050975086805480602002602001604051908101604052809291908181526020016000905b82821015612d0a578382906000526020600020018054612c7d90613ea9565b80601f0160208091040260200160405190810160405280929190818152602001828054612ca990613ea9565b8015612cf65780601f10612ccb57610100808354040283529160200191612cf6565b820191906000526020600020905b815481529060010190602001808311612cd957829003601f168201915b505050505081526020019060010190612c5e565b505050509650995099509950995099509950995099509950509193959799909294969850565b600260015403612d6c576040517f3ee5aeb500000000000000000000000000000000000000000000000000000000815260040160405180910390fd5b6002600181905550565b60018081905550565b612d876130aa565b73ffffffffffffffffffffffffffffffffffffffff16612da56123c7565b73ffffffffffffffffffffffffffffffffffffffff1614612e0457612dc86130aa565b6040517f118cdaa7000000000000000000000000000000000000000000000000000000008152600401612dfb9190613c15565b60405180910390fd5b565b60008060009054906101000a900473ffffffffffffffffffffffffffffffffffffffff169050816000806101000a81548173ffffffffffffffffffffffffffffffffffffffff021916908373ffffffffffffffffffffffffffffffffffffffff1602179055508173ffffffffffffffffffffffffffffffffffffffff168173ffffffffffffffffffffffffffffffffffffffff167f8be0079c531659141344cd1fd0a4f28419497f9722a3daafe3b4186f6b6457e060405160405180910390a35050565b600060086000838152602001908152602001600020805480602002602001604051908101604052809291908181526020018280548015612f2957602002820191906000526020600020905b815481526020019060010190808311612f15575b5050505050905060005b81518110156130a557600060076000848481518110612f5557612f54614a5d565b5b6020026020010151815260200190815260200160002090508060060160009054906101000a900460ff1615613091578060040154600560008360010154815260200190815260200160002060008360030160009054906101000a900473ffffffffffffffffffffffffffffffffffffffff1673ffffffffffffffffffffffffffffffffffffffff1673ffffffffffffffffffffffffffffffffffffffff16815260200190815260200160002060008360020154815260200190815260200160002060008282546130259190614388565b9250508190555060008160060160006101000a81548160ff02191690831515021790555082828151811061305c5761305b614a5d565b5b60200260200101517f61b9399f2f0f32ca39ce8d7be32caed5ec22fe07a6daba3a467ed479ec60658260405160405180910390a25b50808061309d90614231565b915050612f33565b505050565b600033905090565b8280548282559060005260206000209081019282156130fa579160200282015b828111156130f95782518290816130e9919061490b565b50916020019190600101906130d2565b5b5090506131079190613160565b5090565b6040518060e00160405280600081526020016000815260200160008152602001600073ffffffffffffffffffffffffffffffffffffffff16815260200160008152602001600081526020016000151581525090565b5b8082111561318057600081816131779190613184565b50600101613161565b5090565b50805461319090613ea9565b6000825580601f106131a257506131c1565b601f0160209004906000526020600020908101906131c091906131c4565b5b50565b5b808211156131dd5760008160009055506001016131c5565b5090565b6000604051905090565b600080fd5b600080fd5b6000819050919050565b613208816131f5565b811461321357600080fd5b50565b600081359050613225816131ff565b92915050565b600060208284031215613241576132406131eb565b5b600061324f84828501613216565b91505092915050565b613261816131f5565b82525050565b600081519050919050565b600082825260208201905092915050565b60005b838110156132a1578082015181840152602081019050613286565b60008484015250505050565b6000601f19601f8301169050919050565b60006132c982613267565b6132d38185613272565b93506132e3818560208601613283565b6132ec816132ad565b840191505092915050565b7f4e487b7100000000000000000000000000000000000000000000000000000000600052602160045260246000fd5b60048110613337576133366132f7565b5b50565b600081905061334882613326565b919050565b60006133588261333a565b9050919050565b6133688161334d565b82525050565b600073ffffffffffffffffffffffffffffffffffffffff82169050919050565b60006133998261336e565b9050919050565b6133a98161338e565b82525050565b6000610120820190506133c5600083018c613258565b81810360208301526133d7818b6132be565b905081810360408301526133eb818a6132be565b90506133fa6060830189613258565b6134076080830188613258565b61341460a0830187613258565b61342160c083018661335f565b61342e60e08301856133a0565b61343c610100830184613258565b9a9950505050505050505050565b60008060008060808587031215613464576134636131eb565b5b600061347287828801613216565b945050602061348387828801613216565b935050604061349487828801613216565b92505060606134a587828801613216565b91505092959194509250565b60006020820190506134c66000830184613258565b92915050565b600080604083850312156134e3576134e26131eb565b5b60006134f185828601613216565b925050602061350285828601613216565b9150509250929050565b600080600060608486031215613525576135246131eb565b5b600061353386828701613216565b935050602061354486828701613216565b925050604061355586828701613216565b9150509250925092565b600080fd5b600080fd5b7f4e487b7100000000000000000000000000000000000000000000000000000000600052604160045260246000fd5b6135a1826132ad565b810181811067ffffffffffffffff821117156135c0576135bf613569565b5b80604052505050565b60006135d36131e1565b90506135df8282613598565b919050565b600067ffffffffffffffff8211156135ff576135fe613569565b5b613608826132ad565b9050602081019050919050565b82818337600083830152505050565b6000613637613632846135e4565b6135c9565b90508281526020810184848401111561365357613652613564565b5b61365e848285613615565b509392505050565b600082601f83011261367b5761367a61355f565b5b813561368b848260208601613624565b91505092915050565b600067ffffffffffffffff8211156136af576136ae613569565b5b602082029050602081019050919050565b600080fd5b60006136d86136d384613694565b6135c9565b905080838252602082019050602084028301858111156136fb576136fa6136c0565b5b835b8181101561374257803567ffffffffffffffff8111156137205761371f61355f565b5b80860161372d8982613666565b855260208501945050506020810190506136fd565b5050509392505050565b600082601f8301126137615761376061355f565b5b81356137718482602086016136c5565b91505092915050565b600080600080600060a08688031215613796576137956131eb565b5b600086013567ffffffffffffffff8111156137b4576137b36131f0565b5b6137c088828901613666565b955050602086013567ffffffffffffffff8111156137e1576137e06131f0565b5b6137ed88828901613666565b945050604086013567ffffffffffffffff81111561380e5761380d6131f0565b5b61381a8882890161374c565b935050606061382b88828901613216565b925050608061383c88828901613216565b9150509295509295909350565b6138528161338e565b811461385d57600080fd5b50565b60008135905061386f81613849565b92915050565b60008060006060848603121561388e5761388d6131eb565b5b600061389c86828701613216565b93505060206138ad86828701613860565b92505060406138be86828701613216565b9150509250925092565b60008115159050919050565b6138dd816138c8565b82525050565b60006020820190506138f860008301846138d4565b92915050565b60008060408385031215613915576139146131eb565b5b600061392385828601613216565b925050602061393485828601613860565b9150509250929050565b600081519050919050565b600082825260208201905092915050565b6000819050602082019050919050565b613973816131f5565b82525050565b6000613985838361396a565b60208301905092915050565b6000602082019050919050565b60006139a98261393e565b6139b38185613949565b93506139be8361395a565b8060005b838110156139ef5781516139d68882613979565b97506139e183613991565b9250506001810190506139c2565b5085935050505092915050565b60006020820190508181036000830152613a16818461399e565b905092915050565b6000819050919050565b6000613a43613a3e613a398461336e565b613a1e565b61336e565b9050919050565b6000613a5582613a28565b9050919050565b6000613a6782613a4a565b9050919050565b613a7781613a5c565b82525050565b6000602082019050613a926000830184613a6e565b92915050565b600081519050919050565b600082825260208201905092915050565b6000819050602082019050919050565b613acd8161338e565b82525050565b613adc816138c8565b82525050565b60e082016000820151613af8600085018261396a565b506020820151613b0b602085018261396a565b506040820151613b1e604085018261396a565b506060820151613b316060850182613ac4565b506080820151613b44608085018261396a565b5060a0820151613b5760a085018261396a565b5060c0820151613b6a60c0850182613ad3565b50505050565b6000613b7c8383613ae2565b60e08301905092915050565b6000602082019050919050565b6000613ba082613a98565b613baa8185613aa3565b9350613bb583613ab4565b8060005b83811015613be6578151613bcd8882613b70565b9750613bd883613b88565b925050600181019050613bb9565b5085935050505092915050565b60006020820190508181036000830152613c0d8184613b95565b905092915050565b6000602082019050613c2a60008301846133a0565b92915050565b600060e082019050613c45600083018a613258565b613c526020830189613258565b613c5f6040830188613258565b613c6c60608301876133a0565b613c796080830186613258565b613c8660a0830185613258565b613c9360c08301846138d4565b98975050505050505050565b600060208284031215613cb557613cb46131eb565b5b6000613cc384828501613860565b91505092915050565b600081519050919050565b600082825260208201905092915050565b6000819050602082019050919050565b600082825260208201905092915050565b6000613d1482613267565b613d1e8185613cf8565b9350613d2e818560208601613283565b613d37816132ad565b840191505092915050565b6000613d4e8383613d09565b905092915050565b6000602082019050919050565b6000613d6e82613ccc565b613d788185613cd7565b935083602082028501613d8a85613ce8565b8060005b85811015613dc65784840389528151613da78582613d42565b9450613db283613d56565b925060208a01995050600181019050613d8e565b50829750879550505050505092915050565b6000610120820190508181036000830152613df3818c6132be565b90508181036020830152613e07818b6132be565b90508181036040830152613e1b818a613d63565b9050613e2a6060830189613258565b613e376080830188613258565b613e4460a0830187613258565b613e5160c083018661335f565b613e5e60e08301856133a0565b613e6c610100830184613258565b9a9950505050505050505050565b7f4e487b7100000000000000000000000000000000000000000000000000000000600052602260045260246000fd5b60006002820490506001821680613ec157607f821691505b602082108103613ed457613ed3613e7a565b5b50919050565b7f50726f6a65637420646f6573206e6f7420657869737400000000000000000000600082015250565b6000613f10601683613272565b9150613f1b82613eda565b602082019050919050565b60006020820190508181036000830152613f3f81613f03565b9050919050565b7f50726f6a656374206973206e6f74206163746976650000000000000000000000600082015250565b6000613f7c601583613272565b9150613f8782613f46565b602082019050919050565b60006020820190508181036000830152613fab81613f6f565b9050919050565b7f50726f6a65637420646561646c696e6520706173736564000000000000000000600082015250565b6000613fe8601783613272565b9150613ff382613fb2565b602082019050919050565b6000602082019050818103600083015261401781613fdb565b9050919050565b7f496e76616c6964206f7074696f6e000000000000000000000000000000000000600082015250565b6000614054600e83613272565b915061405f8261401e565b602082019050919050565b6000602082019050818103600083015261408381614047565b9050919050565b7f416d6f756e74206d75737420626520706f736974697665000000000000000000600082015250565b60006140c0601783613272565b91506140cb8261408a565b602082019050919050565b600060208201905081810360008301526140ef816140b3565b9050919050565b7f5072696365206d75737420626520706f73697469766500000000000000000000600082015250565b600061412c601683613272565b9150614137826140f6565b602082019050919050565b6000602082019050818103600083015261415b8161411f565b9050919050565b7f496e73756666696369656e7420706f736974696f6e0000000000000000000000600082015250565b6000614198601583613272565b91506141a382614162565b602082019050919050565b600060208201905081810360008301526141c78161418b565b9050919050565b7f4e487b7100000000000000000000000000000000000000000000000000000000600052601160045260246000fd5b6000614208826131f5565b9150614213836131f5565b925082820390508181111561422b5761422a6141ce565b5b92915050565b600061423c826131f5565b91507fffffffffffffffffffffffffffffffffffffffffffffffffffffffffffffffff820361426e5761426d6141ce565b5b600182019050919050565b600060608201905061428e6000830186613258565b61429b6020830185613258565b6142a86040830184613258565b949350505050565b7f4f72646572206973206e6f742061637469766500000000000000000000000000600082015250565b60006142e6601383613272565b91506142f1826142b0565b602082019050919050565b60006020820190508181036000830152614315816142d9565b9050919050565b7f4e6f74206f726465722063726561746f72000000000000000000000000000000600082015250565b6000614352601183613272565b915061435d8261431c565b602082019050919050565b6000602082019050818103600083015261438181614345565b9050919050565b6000614393826131f5565b915061439e836131f5565b92508282019050808211156143b6576143b56141ce565b5b92915050565b7f416d6f756e742062656c6f77206d696e696d756d000000000000000000000000600082015250565b60006143f2601483613272565b91506143fd826143bc565b602082019050919050565b60006020820190508181036000830152614421816143e5565b9050919050565b7f50726f6a6563742063726561746f722063616e6e6f7420707572636861736500600082015250565b600061445e601f83613272565b915061446982614428565b602082019050919050565b6000602082019050818103600083015261448d81614451565b9050919050565b60006060820190506144a960008301866133a0565b6144b660208301856133a0565b6144c36040830184613258565b949350505050565b6144d4816138c8565b81146144df57600080fd5b50565b6000815190506144f1816144cb565b92915050565b60006020828403121561450d5761450c6131eb565b5b600061451b848285016144e2565b91505092915050565b7f4661696c656420746f207472616e7366657220746f6b656e7300000000000000600082015250565b600061455a601983613272565b915061456582614524565b602082019050919050565b600060208201905081810360008301526145898161454d565b9050919050565b60006040820190506145a56000830185613258565b6145b26020830184613258565b9392505050565b7f4174206c656173742032206f7074696f6e732072657175697265640000000000600082015250565b60006145ef601b83613272565b91506145fa826145b9565b602082019050919050565b6000602082019050818103600083015261461e816145e2565b9050919050565b7f4261736520726577617264206d75737420626520706f73697469766500000000600082015250565b600061465b601c83613272565b915061466682614625565b602082019050919050565b6000602082019050818103600083015261468a8161464e565b9050919050565b7f4475726174696f6e206d75737420626520706f73697469766500000000000000600082015250565b60006146c7601983613272565b91506146d282614691565b602082019050919050565b600060208201905081810360008301526146f6816146ba565b9050919050565b7f4661696c656420746f207472616e736665722062617365207265776172640000600082015250565b6000614733601e83613272565b915061473e826146fd565b602082019050919050565b6000602082019050818103600083015261476281614726565b9050919050565b60008190508160005260206000209050919050565b60006020601f8301049050919050565b600082821b905092915050565b6000600883026147cb7fffffffffffffffffffffffffffffffffffffffffffffffffffffffffffffffff8261478e565b6147d5868361478e565b95508019841693508086168417925050509392505050565b60006148086148036147fe846131f5565b613a1e565b6131f5565b9050919050565b6000819050919050565b614822836147ed565b61483661482e8261480f565b84845461479b565b825550505050565b600090565b61484b61483e565b614856818484614819565b505050565b5b8181101561487a5761486f600082614843565b60018101905061485c565b5050565b601f8211156148bf5761489081614769565b6148998461477e565b810160208510156148a8578190505b6148bc6148b48561477e565b83018261485b565b50505b505050565b600082821c905092915050565b60006148e2600019846008026148c4565b1980831691505092915050565b60006148fb83836148d1565b9150826002028217905092915050565b61491482613267565b67ffffffffffffffff81111561492d5761492c613569565b5b6149378254613ea9565b61494282828561487e565b600060209050601f8311600181146149755760008415614963578287015190505b61496d85826148ef565b8655506149d5565b601f19841661498386614769565b60005b828110156149ab57848901518255600182019150602085019450602081019050614986565b868310156149c857848901516149c4601f8916826148d1565b8355505b6001600288020188555050505b505050505050565b600060608201905081810360008301526149f781866132be565b9050614a066020830185613258565b614a136040830184613258565b949350505050565b600081519050614a2a816131ff565b92915050565b600060208284031215614a4657614a456131eb565b5b6000614a5484828501614a1b565b91505092915050565b7f4e487b7100000000000000000000000000000000000000000000000000000000600052603260045260246000fd5b7f4f6e6c792063726561746f722063616e20736574746c65000000000000000000600082015250565b6000614ac2601783613272565b9150614acd82614a8c565b602082019050919050565b60006020820190508181036000830152614af181614ab5565b9050919050565b7f50726f6a65637420616c726561647920736574746c6564000000000000000000600082015250565b6000614b2e601783613272565b9150614b3982614af8565b602082019050919050565b60006020820190508181036000830152614b5d81614b21565b9050919050565b7f496e76616c69642077696e6e696e67206f7074696f6e00000000000000000000600082015250565b6000614b9a601683613272565b9150614ba582614b64565b602082019050919050565b60006020820190508181036000830152614bc981614b8d565b9050919050565b7f4e6f20746f6b656e7320746f2077697468647261770000000000000000000000600082015250565b6000614c06601583613272565b9150614c1182614bd0565b602082019050919050565b60006020820190508181036000830152614c3581614bf9565b9050919050565b6000604082019050614c5160008301856133a0565b614c5e6020830184613258565b9392505050565b7f50726f6a656374206e6f7420736574746c656400000000000000000000000000600082015250565b6000614c9b601383613272565b9150614ca682614c65565b602082019050919050565b60006020820190508181036000830152614cca81614c8e565b9050919050565b7f4f7074696f6e20646964206e6f742077696e0000000000000000000000000000600082015250565b6000614d07601283613272565b9150614d1282614cd1565b602082019050919050565b60006020820190508181036000830152614d3681614cfa565b9050919050565b7f52657761726420616c726561647920636c61696d656400000000000000000000600082015250565b6000614d73601683613272565b9150614d7e82614d3d565b602082019050919050565b60006020820190508181036000830152614da281614d66565b9050919050565b7f4e6f20706f736974696f6e20746f20636c61696d000000000000000000000000600082015250565b6000614ddf601483613272565b9150614dea82614da9565b602082019050919050565b60006020820190508181036000830152614e0e81614dd2565b9050919050565b7f4e6f2077696e6e696e6720616d6f756e74000000000000000000000000000000600082015250565b6000614e4b601183613272565b9150614e5682614e15565b602082019050919050565b60006020820190508181036000830152614e7a81614e3e565b9050919050565b6000614e8c826131f5565b9150614e97836131f5565b9250828202614ea5816131f5565b91508282048414831517614ebc57614ebb6141ce565b5b5092915050565b7f4e487b7100000000000000000000000000000000000000000000000000000000600052601260045260246000fd5b6000614efd826131f5565b9150614f08836131f5565b925082614f1857614f17614ec3565b5b828204905092915050565b7f4661696c656420746f207472616e736665722072657761726400000000000000600082015250565b6000614f59601983613272565b9150614f6482614f23565b602082019050919050565b60006020820190508181036000830152614f8881614f4c565b9050919050565b7f4661696c656420746f207472616e73666572207061796d656e74000000000000600082015250565b6000614fc5601a83613272565b9150614fd082614f8f565b602082019050919050565b60006020820190508181036000830152614ff481614fb8565b9050919050565b600060608201905061501060008301866133a0565b61501d6020830185613258565b61502a6040830184613258565b94935050505056fea2646970667358221220ccc0ed90e42e536066b6114e90b6e41daa3d26edb60be0cd7107e1a4e148688d64736f6c63430008140033",
  "linkReferences": {},
  "deployedLinkReferences": {}
}